:1000000000800020BD010000ED190000A9190000CA
:10001000A9190000A9190000A9190000A9190000D8
:10002000A9190000A9190000A9190000ED19000084
:10003000ED190000A91900009D2A0000A12A000066
:10004000ED190000ED190000ED190000ED19000098
:10005000ED190000ED190000ED190000ED19000088
:10006000ED190000ED190000ED190000ED19000078
:10007000ED190000ED190000ED190000ED19000068
:10008000ED190000ED190000ED190000ED19000058
:10009000ED190000ED190000ED190000ED19000048
:1000A000ED190000ED190000ED190000ED19000038
:1000B000ED190000ED190000ED190000ED19000028
:1000C000ED190000ED190000ED190000ED19000018
:1000D000ED190000ED190000ED190000ED19000008
:1000E000ED190000ED190000ED190000ED190000F8
:1000F000ED190000ED190000ED190000ED190000E8
:10010000ED190000ED190000ED190000ED190000D7
:10011000ED190000ED190000ED190000ED190000C7
:10012000ED190000ED190000ED190000ED190000B7
:10013000ED190000ED190000ED190000ED190000A7
:10014000ED190000ED190000ED190000ED19000097
:10015000ED190000ED190000ED190000ED19000087
:10016000ED190000CD1D0000ED190000ED19000093
:10017000ED190000ED190000ED190000ED19000067
:10018000ED190000ED190000ED190000ED19000057
:10019000ED190000ED190000ED190000ED19000047
:1001A000ED190000ED190000ED190000ED19000037
:1001B000ED190000ED190000ED190000574B4CF24D
:1001C000205210B5DA814DF62812DA8100BF00BF47
:1001D00001F010FC524B4FF010621A63514A9A63BF
:1001E000514ADA63514A136913F4807303D153619E
:1001F0004FF4A85313614E4B9A78110703D59A78A0
:1002000042F008029A704B4B4B482A221A704B4B13
:10021000DA1C121AC11E22F00302994288BF002282
:10022000474901F0EDFA474B4748DA1C121AC11E44
:1002300022F00302994288BF002200210CF026FA26
:10024000424943484FF4DE7201F0DAFA414B424A28
:10025000802103F8011B9342FBD14FF0E0233C4A7D
:10026000C3F8082D3D4B8A221A70A3F5805324222F
:100270005A70A0221A709A799207FCD59A79D406FE
:10028000FCD4374B9A7902F00C02082AFAD10522E5
:100290001A7143225A719A799006FCD5304A9379A3
:1002A0005906FCD51E4B4FF08171596405219964A4
:1002B00020211170917901F00C010C29FAD1294A01
:1002C0005A604FF0E023284A5A6100229A610722BF
:1002D0001A61264AC3F8202D62B601F00DFC134BBB
:1002E0005B69DA0705D5224801F0FAFB214B224A67
:1002F000DA61224B1B785B0609D51E4C1E4BE26966
:100300009A4204D11A4801F0EBFB0023E36101F0AB
:1003100077FB0CF091FC01F06BFAFEE70020054042
:1003200000800440823F04000100002B00D0034005
:1003300000D0074000E007402087FF1FA08EFF1F6E
:1003400080410100C894FF1FA08EFF1F0000000025
:100350000082FF1F00E400E05FE400E00050064080
:1003600000400640C01005003F1901000000202099
:10037000C0D5136900E00340A5C3945A00F00740BC
:10038000FFFFFFFFFFFFFFFFFFFFFFFFFFFFFFFF7D
:10039000FFFFFFFFFFFFFFFFFFFFFFFFFFFFFFFF6D
:1003A000FFFFFFFFFFFFFFFFFFFFFFFFFFFFFFFF5D
:1003B000FFFFFFFFFFFFFFFFFFFFFFFFFFFFFFFF4D
:1003C000FFFFFFFFFFFFFFFFFFFFFFFFFFFFFFFF3D
:1003D000FFFFFFFFFFFFFFFFFFFFFFFFFFFFFFFF2D
:1003E000FFFFFFFFFFFFFFFFFFFFFFFFFFFFFFFF1D
:1003F000FFFFFFFFFFFFFFFFFFFFFFFFFFFFFFFF0D
:10040000FFFFFFFFFFFFFFFFFFFFFFFFDEF9FFFF23
:100410000548064B1B1AD90F01EBA301491002D066
:10042000034B03B118477047A08EFF1FA08EFF1F1C
:100430000000000008B5054B1BB105490548AFF3A6
:100440000080BDE80840FFF7E3BF00BF00000000E8
:10045000A08EFF1F8C3E0100C0E90012704700BF54
:1004600038B50546006803680C465B6809490422F4
:1004700098472D6844B120460CF062FC2B68024678
:100480005B682146284698472846BDE8384000F07A
:10049000E9BF00BFB023010038B505460068036816
:1004A0000C465B680949042298472D6844B12046F0
:1004B0000CF046FC2B6802465B68214628469847AC
:1004C0002846BDE8384000F0CDBF00BFB82301008A
:1004D0002DE9F0438FB00C460646854908A801F087
:1004E0001BF808A9204601F0D7F8054608A801F036
:1004F00031F8A5B1214608A8062201F0F7F87D4998
:1005000008A801F0B3F800284FD17B4908A801F0F2
:10051000ADF8002840F0BA8008A801F01BF8774930
:1005200008A800F0F9FF08A9204601F0B5F8054633
:1005300008A801F00FF815B30622214602A801F021
:10054000D5F86F4908A800F0E7FF08A902A801F054
:10055000B7F8054608A800F0FDFF002D5ED16949F7
:1005600008A800F0D9FF08A902A801F0A9F80746D9
:1005700008A800F0EFFF37BB02A800F0EBFF6249CC
:10058000204601F073F830B9604930460FB0BDE83D
:10059000F043FFF781BF706800F03CF95A493046DC
:1005A0000FB0BDE8F043FFF75BBF7068012100F0BA
:1005B00027F957493046FFF753FF08A800F0CAFF54
:1005C0000FB0BDE8F083049B0DF11408043B2A46EC
:1005D00002A9404601F0B6F84E4BDDF81490B9F18F
:1005E000000F08BF99460AAF484608970CF0A8FBD1
:1005F0000F280446019071D801285BD199F800308A
:100600008DF828303B460022099440461A5500F0E8
:10061000A1FF706808A900F0F9F826E0049B0DF12D
:100620001408033B002202A9404601F08BF8394B25
:10063000059D002D08BF1D460AAF284608970CF0FF
:100640007FFB0F28044601903FD8012827D12B7843
:100650008DF828303A46002309944046135500F09F
:1006600079FF706808A900F0CDF830462A49FFF7F5
:10067000F7FE0898B84203D00A99013101F000FA58
:1006800002A800F067FF0FB0BDE8F0837068022198
:1006900000F0B6F81E493046FFF7E2FE8DE73A4615
:1006A0000028D8D038462246294601F0A9F8019CF6
:1006B000089AD0E73B460028A5D03846224649464E
:1006C00001F09EF8019C089B9DE7002201A908A863
:1006D00002F092FA019B08900A93E4E72A4601A9E6
:1006E00008A802F089FA019B08900A93E6E700BF88
:1006F000C0230100C8230100D8230100E02301002A
:10070000E8230100F4230100FC230100042401007C
:10071000D0230100C8240100EC23010010B50446D9
:100720000068036884B01B69984708B904B010BD1D
:10073000002321680A2201A800F0CCFE01A801F0E4
:100740002BF8039B43B10B4901A800F08FFF40B980
:1007500001A92046FFF7BCFE01A800F0FBFE04B093
:1007600010BD606800F048F802492046FFF778FEA7
:10077000F2E700BF102401000022026042608260A4
:10078000C260026142618261C2610262426282624F
:10079000C262026382868263704700BF00F1090370
:1007A00000F13901002203F8032C03F8022C03F8AE
:1007B000012C03338B42F6D101234371704700BFF4
:1007C000037953B9826B0B4B891A994208D8C378C5
:1007D0001BB903784BB14378037001234371704711
:1007E000012303710123437170478378002BF4D0F8
:1007F000F1E700BFC0D4010001238370704700BF40
:10080000417070470123C370704700BF0023C3705D
:10081000704700BF044B82B01B680193019B836348
:100820000022027102B070475090FF1F06307047DF
:100830004079704740697047807C70478174704789
:1008400000207047012070474FF4C870704700BF08
:1008500010B501210446062001F0A0F9024B2362E5
:100860001022E26110BD00BFC0F00F4010B5034B75
:100870000360044600F04AFD204610BD202401001C
:1008800010B5054B0360044600F040FD20462821CA
:1008900001F0F6F8204610BD2024010002682DE981
:1008A000F041536A0D460F498B42044610D1867CB5
:1008B000E37C33B15768616862692B462046B847CC
:1008C0002268936A084A934207D1A674BDE8F08172
:1008D0004169984722680646EAE731462046BDE866
:1008E000F0411847390800003D08000070B5044683
:1008F00000F032FD236816499A698A421CD15A6A6F
:1009000014498A421DD1A57CE27C2AB99B6A124A0D
:1009100093420CD1A57470BD5E6862696168002362
:100920002046B04723680C4A9B6A9342F2D029467E
:100930002046BDE87040184720460021BDE87040C1
:10094000104761692046904723680546DCE700BFF1
:100950009D080000390800003D0800002DE9F04323
:10096000374E384883B0FFF761FF3468BFF35B8FC1
:1009700014F0010405464DD00023102229463248C8
:10098000324D334C334FDFF8D09000F0D5FB334B72
:100990002E6880221A7040F2EE2801F0E5FF2378DD
:1009A00003B33B78DA071DD52B68D9F800209B1AD2
:1009B0000E2B17D9274FDFF8A08040F6B73601F08D
:1009C000D3FF2378C3B13B78DB0715D52B68D8F864
:1009D00000209B1A0E2B0FD91A4803B0BDE8F04334
:1009E000FFF7DCBE2B6822789B1B82B1B3F5FA6F50
:1009F000E0D801F0B9FFD0E72B680193019BB34227
:100A0000DDD9104803B0BDE8F043FFF7C7BE43454A
:100A1000EFD9CFE7304601F01FF80028ACD00A4FDD
:100A2000384600F075FC0E4B0E4A0F49BC843B6003
:100A3000384602F0DBF8304601F016F89CE700BFBC
:100A4000BC8EFF1FE88EFF1FC08EFF1F5090FF1F40
:100A50003091FF1F5491FF1F5891FF1F2C8FFF1FD4
:100A60005C2401002087FF1F6D08000010B50D4BAE
:100A70000D481B6882B00193019C2146FFF74EFE92
:100A80000A482146FFF79CFE0848FFF7D1FE08B947
:100A900002B010BD0648017802B0BDE8104000F079
:100AA0009FBB00BF5090FF1F248FFF1FE88EFF1FCA
:100AB0002C8FFF1F2DE9F0434FF0E024A64AD4F815
:100AC000FC1DA64B41F08071C4F8FC1D1168002488
:100AD00041F0010111605460D3F8C020D3F8C02068
:100AE00022F01002C3F8C020417B037C02685B1A2D
:100AF000DBB243735678844616B186FA53F6F6B2E3
:100B00009CF8193003FB0666C6F3072672B6924BB3
:100B1000DCF808105A68002902F15A0240F3DA8022
:100B20008E4844F6786E9CF80C909CF80D809CF8EA
:100B30000E709CF80F509CF810409CF81110A5EB1B
:100B40000905A4EB0804C91B8CF80C508CF80D4067
:100B50008CF80E1072B65968914204D95968891AF6
:100B6000714500F2F580D0F8C040D0F8C05044F094
:100B7000100425F01005072759689142FCD35A68E4
:100B8000C0F8C040310602F15A0200F1A88059684D
:100B9000511A4E29FBD87600013FC0F8C050F6B27A
:100BA000EAD159688A42FCD85A68C0F8C040360673
:100BB00002F15A0200F19D805968511A4E29FBD862
:100BC000DCF80060C0F8C050377827B19CF80C10F2
:100BD00087FA51F7FFB29CF8181001FB07774FF026
:100BE0000708C7F3072759689142FCD35A68C0F831
:100BF000C040390602F15A0200F185805968511A45
:100C00004E29FBD87F00B8F10108C0F8C050FFB2F0
:100C1000E9D159688A42FCD85A68C0F8C0403F06FA
:100C200002F15A0279D45968511A4E29FBD8C0F8FA
:100C3000C050B77827B19CF80E1087FA51F7FFB271
:100C40009CF81A1001FB07774FF00708C7F3072736
:100C500059689142FCD35A68C0F8C040390602F185
:100C60005A0263D45968511A4E29FBD87F00B8F153
:100C70000108C0F8C050FFB2EAD159688A42FCD8D6
:100C80005A68C0F8C040390602F15A0257D4596870
:100C9000511A4E29FBD8C0F8C050DCF808109CF956
:100CA000124001392644CCF80060CCF80810767860
:100CB00026B19CF80D1086FA51F6F6B29CF8191080
:100CC00001FB0666C6F3072662B6DCF808100029A9
:100CD0003FF729AF62B6204B5868BDE8F0835968EA
:100CE000511A21297FF657AF5968511A2129F6D890
:100CF00051E75968511A21297FF662AF5968511A94
:100D00002129F6D85CE75968511A21297FF67AAF74
:100D10005968511A2129F6D874E75968511A2129BE
:100D200085D95968511A2129F7D880E75968511A8D
:100D300021299BD95968511A2129F7D896E7596872
:100D4000511A2129A7D95968511A2129F7D8A2E7A0
:100D500062B60020BDE8F083001000E000F00F4014
:100D600070B5044688B00D4600F054FFA38CC31A3A
:100D70009BB2B3F58C7FF7D32E46298A56F8183BE1
:100D8000ADF8101096E80300EA6803920093AA7C7D
:100D900006900B0C8DF81E308DF812206B686A6976
:100DA000ADF81C106846019302930592FFF782FE8E
:100DB00020B100F02FFFA08408B070BD62B64FF4E0
:100DC000D253013BFDD172B696E80300EB68039362
:100DD0002B8AADF810302B6800930B0C6A690690D3
:100DE000ADF81C108DF81E30A97C6B688DF81210C0
:100DF0006846019302930592FFF75CFE00F00AFF3C
:100E0000A08408B070BD00BFF0B593B06F46154622
:100E10000E461A4601460446384600F0B3FA0296DA
:100E20000395049597E803000A0C8DF82E200AAE6E
:100E30000A90ADF82C1096E80300A37C08900A0CE9
:100E4000012BADF824108DF826205BD000230593EC
:100E5000ADF81830236848491A6B00238A428DF890
:100E60001A30079340F0838000F0D4FEA38CC31A9D
:100E70009BB2B3F58C7FF7D308AD95E80300059BD3
:100E80000D930B0C8DF84630039B9DF81A200B93A5
:100E90000C93BDF8183010908DF83A20ADF838302A
:100EA000079A029BADF8441030460F920A93FFF761
:100EB00001FE20B100F0AEFEA08413B0F0BD62B61A
:100EC0004FF4D253013BFDD172B6059A0D9295E8CD
:100ED0000300BDF81820ADF83820029A0A929DF858
:100EE0001A20039B10900D0C8DF83A203046079A7B
:100EF0008DF84650ADF844100B930C930F92FFF70A
:100F0000D9FDD7E71D4A1378013303F00703D90150
:100F10001370C9B29A0748BF41F040015B0748BF50
:100F200041F020019DF82020103105ABC9B20DF130
:100F300017074FF4807CBAB1BCFBF2F2D2B2501C5E
:100F4000C0B200FB0115C5F3072E2D1218BF0EF11C
:100F5000FF35D8701D7000B1DA7001339F423FF445
:100F600079AF1A7B002AE7D1DA701A70F5E702A987
:100F70002046904713B0F0BD610D0000B88EFF1FF2
:100F80002DE9F04192B06F4615460E4604460146E3
:100F90001A46384600F0F6F985EAE573A3EBE573E7
:100FA00002960393049397E803000B0C8DF82E3000
:100FB0000AAE0A90ADF82C1096E803000B0C8DF8E1
:100FC0002630A37C0890012BADF8241061D00023BB
:100FD0000593ADF8183023684B4A1B6B0021002D98
:100FE0000791B4BF6FF00201032193428DF81A10EC
:100FF00040F0848000F00EFEA38CC31A9BB2B3F5C0
:101000008C7FF7D308AD95E80300059B0D930B0C7F
:101010008DF84630039B9DF81A200B930C93BDF876
:10102000183010908DF83A20ADF83830079A029BAE
:10103000ADF8441030460F920A93FFF73BFD28B1FC
:1010400000F0E8FDA08412B0BDE8F08162B64FF474
:10105000D253013BFDD172B6059A0D9295E803007B
:10106000BDF81820ADF83820029A0A929DF81A208F
:10107000039B10900D0C8DF83A203046079A8DF89E
:101080004650ADF844100B930C930F92FFF712FDEE
:10109000D6E71E4A1378013303F00703D901137012
:1010A000C9B29A0748BF41F040015B0748BF41F011
:1010B00020019DF82020103105ABC9B20DF1170CAD
:1010C0004FF4807EBAB1BEFBF2F2D2B2501CC0B275
:1010D00000FB0117C7F307283F1218BF08F1FF37BD
:1010E000D8701F7000B1DA7001339C453FF473AFC4
:1010F0001A7B002AE7D1DA701A70F5E702A92046B8
:10110000984712B0BDE8F081610D0000B88EFF1F56
:1011100010B5054C2046FFF72FFB22460349044833
:10112000BDE81040FFF798B9E88EFF1F2887FF1F22
:10113000248FFF1F00207047002B70B504460E4619
:10114000154603DD02EB42052E441D46236820466A
:101150001B69984723680B4ADB6A666093426561A6
:1011600001D1204670BD204698470028F9D0064995
:10117000064A4B68B2FBF0F0834238BF03464B602F
:10118000204670BD410800002C8FFF1F40420F0019
:1011900070B4104A1468631C8C4283B0136016DB71
:1011A0000D4C216800910099246801940B4C019D1D
:1011B00026682560891B01294FF47A7C38BF0121FC
:1011C0000CFB03F3B3FBF1F300214380116003B088
:1011D00070BC70474890FF1F5090FF1F4C90FF1F3E
:1011E0002DE9F04F43683C4C83B00646884633B146
:1011F00000F010FD22687368801A9842F7D300F05F
:1012000009FDF36820601BB14046B16898478046ED
:10121000324B1C68002C33D0314DDFF8C890DFF81A
:10122000C8B005F580774FF0000A0EE05A456169B5
:101230001AD1A07C728845F8040B632A98BF84F801
:1012400012A0A4689CB1BD4211D0E07C0028F1D06E
:101250002268D169526A4945E8D001922046884700
:10126000019A5A450146E4D020469047E2E71B4BDD
:101270001C68402524B1E37C33BB013DA468F9D14F
:10128000164B1C68CCB1164DDFF8608005F58077F1
:1012900005E0A174A46804357CB1AF420DD0E37CB5
:1012A000002BF7D0236829689B6A4345F1D020467C
:1012B0009847A4680435002CEFD11921304603B0BB
:1012C000BDE8F04FFFF764BF236862695F6861683B
:1012D00020464346B847D0E73C90FF1F4090FF1F91
:1012E0003C8FFF1F35080000390800003D08000052
:1012F000044B0022FF204FF0FF31C3E90002996048
:10130000DA6070472C8FFF1F01207047704700BFC5
:1013100010B40D4A0D4C04604FF0FF34C4601168E6
:1013200004F1817400230461094C436083604361CC
:10133000846131B1074B1A6802B1906010BC18602B
:1013400070471060F6E700BF4090FF1F982401002F
:10135000701703004490FF1F0346406880B10029C6
:1013600008DB5B699942A8BF194601EB41020021E5
:101370000BF08CB9596901EB410200210BF086B9E1
:10138000704700BF2DE9F041164601F10F0401F14D
:101390000C0784B0054622463946304600F036F840
:1013A000C0F307238DF80D30C0F307438DF80C0010
:1013B0008DF80E30039BADF808304FF003081B0C7E
:1013C000424602A928468DF80A3000F019FA224652
:1013D0003946FF2000F01AF8C0F30722C0F3074394
:1013E0008DF808008DF809208DF80A30029BADF8C1
:1013F0000430190C42468DF80610A81801A900F017
:10140000FFF92846AE7104B0BDE8F08110B582B096
:101410000023ADF800308DF80230A0B10139EC4660
:1014200002F1030E11F8013F43B1147803FB0003EE
:1014300024B104FB03331B0C8CF8003001327245DD
:101440000CF1010CEED1009B0020DAB262F3070030
:10145000C3F3072262F30F20C3F3074363F317407C
:1014600002B010BD00B5036883B040F60D22ADF8A0
:1014700004205B68022201A9984703B05DF804FBD1
:10148000034B022888BF034618461B685B68184751
:101490002887FF1F70B50E4D82B02B680093009E09
:1014A000044608E001F060FA2B680193019BA268F2
:1014B0009B1B934207D2236820465B69984700280C
:1014C000F0DB02B070BD4FF0FF3002B070BD00BF66
:1014D0005090FF1F2DE9F0410F460021064690462F
:1014E0001D46002400F018F805E012D0E04510D0A9
:1014F00000F0ACF80134AC42384600D34DB9FFF7E8
:10150000C9FFB0F1000C5FFA8CF13046EDDA01232F
:101510003B733046BDE8F081F8B50026044606600E
:101520004660866029B108460D460BF009FC074667
:1015300008B92046F8BD013009F076FF0028F8D040
:10154000C4E900070670A76029460BF017FB204688
:10155000F8BD00BF10B50446006809F06DFF2046D5
:1015600010BD00BFF8B50446154632B9036803B193
:101570001A700023A3602046F8BD43689A420E46C5
:101580001CD90068511C0AF01BFA074660B1A36819
:10159000206065600BB903702768A5603146384646
:1015A0000BF0ECFA2046F8BD206810B109F044FFBA
:1015B000276000236360A3602046F8BD0768A5602C
:1015C000314638460BF0DAFAECE700BF2DE9F84374
:1015D00004460068A36888420D46164609D8C2181A
:1015E000914206D20F1A4FF0010936B92046BDE8E4
:1015F000F8834FF00009002EF8D0626803EB06086C
:1016000090450CD908F101010AF0DAF90028EDD073
:10161000A368C4E9000813B903702068A368B9F18E
:10162000000F08D1294618440BF0A8FAC4F8088026
:101630002046BDE8F8833246C119184400F0E0F8AE
:101640002368002203F80820F0E700BF10B582B03D
:1016500000238DF80410012201A904468DF80530FD
:10166000FFF7B4FF204602B010BD00BF826808B586
:101670000B463AB161B100680BF016F9B0FA80F090
:10168000400908BD31B11878B0FA80F0400908BDB2
:101690000368F8E7012008BD08B58A6883689342AB
:1016A00009D3006830B1096839B10BF041F8B0FADC
:1016B00080F0400908BD002008BD084608BD00BFF5
:1016C00008B58A68836893420BD3006840B1096803
:1016D00049B19B1A18440BF0E7F8B0FA80F04009C2
:1016E00008BD002008BD084608BD00BF2DE9F04137
:1016F0008F6897420E46054602D213463A461F4669
:101700000023AB60B0682B6090426B6014D38742BB
:1017100028BF0746316811F80780CB5533689C18FD
:101720000DD020460BF00CFB214602462846FFF761
:1017300019FF336803F807802846BDE8F081AC60E4
:10174000F8E700BF9A422DE9F04105460E4602D95E
:1017500011461A460B460021A960B76829609742D6
:10176000696014D39F4228BF1F46336813F807806F
:10177000D95533689C180DD020460BF0E1FA21466C
:1017800002462846FFF7EEFE336803F80780284636
:10179000BDE8F081AC60F8E72DE9F0410768064646
:1017A000DFB18468CCB1B846454618F8010B09F0A2
:1017B000F7FD0028F8D1013C3C4402E0A54205D8E1
:1017C000013C207809F0ECFD0028F7D1621C521B87
:1017D000AF42B26004D30023BB543046BDE8F08171
:1017E0003846294600F00CF83768B268F3E700BFC6
:1017F00008B5FFF7B3F8FFF739F901F0B5F8FAE7E4
:1018000001B441EA000313F003036FD1403A41D31E
:1018100051F8043B40F8043B51F8043B40F8043BCA
:1018200051F8043B40F8043B51F8043B40F8043BBA
:1018300051F8043B40F8043B51F8043B40F8043BAA
:1018400051F8043B40F8043B51F8043B40F8043B9A
:1018500051F8043B40F8043B51F8043B40F8043B8A
:1018600051F8043B40F8043B51F8043B40F8043B7A
:1018700051F8043B40F8043B51F8043B40F8043B6A
:1018800051F8043B40F8043B51F8043B40F8043B5A
:10189000403ABDD2303211D351F8043B40F8043BFA
:1018A00051F8043B40F8043B51F8043B40F8043B3A
:1018B00051F8043B40F8043B103AEDD20C3205D30A
:1018C00051F8043B40F8043B043AF9D204320AD000
:1018D000D2071CBF11F8013B00F8013B03D30B7882
:1018E00003704B78437001BC704700BF0C2A4AD389
:1018F00010F0030311D0C3F10403D21ADB071CBF9D
:1019000011F8013B00F8013B07D311F8013B00F847
:10191000013B11F8013B00F8013B11F003033FF4D8
:1019200075AF30B4043AC91AC3F1040C51F8044B32
:10193000022B19D0032B0BD0240A51F8043B1D06AF
:1019400044EA050440F8044B1C46043AF4D216E07D
:10195000240E51F8043B1D0244EA050440F8044BF0
:101960001C46043AF4D20AE0240C51F8043B1D044E
:1019700044EA050440F8044B1C46043AF4D204320D
:10198000B1EB0C0130BC043AA0D3013A11F8013B91
:1019900000F8013BF9D20B7803704B7843708B78D9
:1019A000837001BC704700BF08B50F4C636B5803D0
:1019B0000DD4636B59050FD4636B1A0511D4636B97
:1019C000DB04F3D500F012F8636B5803F1D500F097
:1019D000FDF9636B5905EFD500F008F8636B1A0544
:1019E000EDD500F003F8EAE70080044008B5FFF702
:1019F000DBFF00BF014B10221A807047002005401A
:101A0000704700BF094A08B50346106833B16946FC
:101A10000344A1F580518B4201D2136008BD0AF046
:101A200033FF0C2303604FF0FF3008BD2487FF1FF6
:101A3000002070474FF0FF30704700BF4FF4005355
:101A40004B600020704700BF012070474FF0FF300F
:101A5000704700BFFEE700BFD0E9003213430CBF60
:101A600001200020704700BF01220023C0E90023AD
:101A7000704700BFFEE7FFFF09F0D6BC09F0DCBCF1
:101A800009F0DABC01F1FF3C70B56546002401E0C5
:101A900070460134B0FBF2FE02FB1E03092B03F17A
:101AA00030068ABF3733F3B2DBB2904205F8013F0C
:101AB000EED2631C0022CA54C8187CB162461CF8DE
:101AC000015F10F801ED8CF800E0A1EB0C0302328D
:101AD000013B521A23449A420570EFDB084670BD61
:101AE000034B002210215A615A60186059617047F7
:101AF00000D00340704700BFF0B54FF0E0244FF432
:101B000000054FF0807CC4F80851C4F808C14FF0BC
:101B1000007CC4F808C11D4A1D481E494FF0806C66
:101B2000C4F808C12823002748F6FF7609254FF09E
:101B3000006CC4F808C183B057609660D3605361ED
:101B4000D3615362D3625363D363536415604760B8
:101B50008660C360436105604F608E60CB604B61FF
:101B60000D6000F0A5FFFFF7C5FF0B4C2368009345
:101B7000009B132BFAD900F0E3FC23680193019B2F
:101B8000B3F5967FF9D303B0F0BD00BF00800340EA
:101B90000090034000800B405090FF1F212820D868
:101BA0001B4A02EBC00301295B680FD004291DD03A
:101BB00052F83000002280F8802299B1022922D008
:101BC00003290DD14FF481721A60704752F830002A
:101BD0004FF4A27280F880121A601A6822F0200274
:101BE0001A6070474FF480721A60704752F83010D4
:101BF0004FF4A272012081F880021A601A6842F044
:101C000020021A60704740F203121A60704700BF4A
:101C1000CC24010072B60D494FF0E02293690868A8
:101C2000D2F8042D62B6520102D5322B88BF0130A2
:101C3000074AC3F58C334FF47A7103F23F13A2FBCA
:101C4000032301FB00F000EB131070475090FF1FBF
:101C5000398EE338431E032B17D872B60C4951F85E
:101C6000230080B110B40B4CB0F800C034F813203E
:101C7000A2EB0C02D0F804C041F823C024F81320D2
:101C800062B610BC704762B670470020704700BF54
:101C9000E490FF1F3491FF1F013803280BD872B660
:101CA000074B53F8203043B100205B680130002B14
:101CB000FBD162B67047002070471846F9E700BFB5
:101CC0000C91FF1F10B472B6194A1A4C042312F873
:101CD000011B090743F0010C05D554F8331061B11D
:101CE00054F83C10B9B10433142BF0D162B6124B46
:101CF00000221A7010BC00F09BBC0F4904EBC30219
:101D0000083050600A780D4844F83300013A0A70F0
:101D100062B610BC7047084A094904EBCC0308308E
:101D20005860137844F83C10013B137062B6F0E73A
:101D30005C2601000080FF1F3C91FF1F88004000CF
:101D4000C8004000421E032A0ED81C4B400140F040
:101D5000100010B4034472B6194CA05C03281CD8C0
:101D6000DFE800F01315031870470520A05413F0A6
:101D7000080F088814BFC8228822083142EA0042AE
:101D800059601A6062B610BC70470320EEE7083352
:101D90000220EBE708330420E8E70A4B53F822005F
:101DA00038B1094B53F82200416043F8221062B663
:101DB000E9E743F82210044BF7E700BF0080FF1F5C
:101DC0002C91FF1F0C91FF1F1C91FF1F2DE9F04F5D
:101DD000DFF8CCA2DFF8CCB285B03DE0B24D9E0872
:101DE00005EBC607013A796813F00803D4B2A1F1F4
:101DF000080040F0B88055F836204FEA124C120C1B
:101E000021F808CC00F0A78021F8063C41F8043CFA
:101E1000A64B53F82420002A00F00182A44B53F86B
:101E20002420506043F82400A24B33F8142094443B
:101E300023F814C000F0DCFB002800F0E98117F063
:101E4000080F9D4B00F1080018BF5B46786045F80D
:101E5000363008238AF880309AF880305907DCB28F
:101E60001BD5964B1B78ABB195490A7802F0FF035E
:101E70002AB1013BDBB20B70002B00F04683914985
:101E80000A7802F0FF032AB1013BDBB20B70002B92
:101E900000F0EB8104238AF8803014F0080200F08F
:101EA000CC819AF89020D3B2120997D1DFF8F8913B
:101EB0009B0809EBC30459F833006468C0F383003E
:101EC00009287CD00FD80138012808D87E4A158807
:101ED00042F22100854200F0FB8149F833B0012332
:101EE0008AF89430B5E70D28F9D1D4E90007774D89
:101EF00049F833B0744E764CC9F8102083B240F2E2
:101F0000816CC9F818202A6063454FF00102C6E9C8
:101F10000007227000F2FF80B3F5D06F80F0CB8213
:101F2000B3F5817F00F0268240F2DE8040F202327B
:101F300093427BD107F07F07042F00F20881020C47
:101F400040F00581634911F8273043F0020301F89E
:101F50002730134670E017F0080F574B18BF5B4649
:101F600045F8363075E700F063FB5B495B4A51F892
:101F70002430002B00F05781586841F82400115D8F
:101F800003F108007860032905D8DFE801F0120F9B
:101F90001502042111551A8817F0080F14BFC82321
:101FA000882343EA024345F8363052E702211155AF
:101FB000F1E703211155EEE705211155EBE7434DFC
:101FC0002A683AB34649424C0F88464894F800E0E4
:101FD0000678402F3B4628BF4023BEF1000F8EF00D
:101FE000010E84F800E046F0020486F00106067057
:101FF00009EBC400426014BFC820882040EA0340B7
:102000001A44FB1A9BB249F834000B80002B00F0F5
:1020100036812A602C4B1A88B2F5A06F7FF45FAF2F
:102020009A788AF8982000225A7058E7B3F5A06F82
:1020300040F08D8000221346B6F806C0294894452A
:1020400028BF944667460278402F28BF402742F0B9
:10205000020E3E0409EBCE0846F0C806C8F804306C
:1020600049F83E6000263B442670BCEB070782F02F
:102070000106067040F01181BCF13F0F4FF00105E1
:1020800009D946F00206027009EBC60225705360BA
:10209000882349F8363001238AF894301FE700BFBF
:1020A00000200740C80040000080FF1FE490FF1F91
:1020B000F490FF1F3491FF1F880040003091FF1FF4
:1020C0003191FF1F5C91FF1F0491FF1FD890FF1FEC
:1020D000D590FF1FC02007400C91FF1F2C91FF1FC0
:1020E000D690FF1FD490FF1F802B00F08B81822B96
:1020F0002DD107F07F07042F29D8A74A002313808A
:10210000A64B13F827309F0740F1FC810123137081
:10211000A14B022290E742F2210C6345BBD01DD9AE
:1021200042F2212293420DD1BFB2002F82D19C4BAB
:102130001A689C4B1A609C4BC0F307400022187031
:10214000134679E742F2213293423FF473AF0F23F3
:102150008AF8C03001238AF89430C0E6B3F5086FDE
:1021600000F04A81B3F5106FF1D1904BC0F30740F6
:102170000425187059F835301A0606D40135142D87
:102180000CD059F835301A06F8D509EBC5030135DE
:102190005868083800F04CFA142DF2D1844A854B67
:1021A0000292854A0192854E854ADFF8188203948F
:1021B000009200251C4656F8047B2FB138467F68F4
:1021C00000F036FA002FF9D1009BD8F8007043F8E0
:1021D000045B46F8045C00932FB138467F6800F03A
:1021E00027FA002FF9D1029B48F8045B43F8045BFF
:1021F0000293019B23F8025B01932378023B032B9C
:1022000000F20981DFE813F03F0104013F010401FE
:102210006D4A45F8360013780133137019E643F818
:102220002400674BFEE5115D022926D07FF611AE32
:1022300003291DD1012313550BE6E0076ED42106B7
:1022400021D4A20708D5614B93F888200221D2B28D
:1022500083F8882083F88010E30603D55B4B1022B7
:1022600083F8802005B0BDE8F08F00F059FB11E63F
:1022700017F0080F14BF032302231355E9E53F2F7E
:1022800098BF0022C5E6514B80220D2183F8C01073
:1022900083F88020A207DFD5D5E746F0020602705A
:1022A000402F09EBC6003A4628BF40224360100485
:1022B000134440F088000121BA1A49F83600217011
:1022C00055D02B60424B1A8001238AF8943006E6E1
:1022D00092885AB93F4AE51D14F8011B02F8011F04
:1022E000AC42F9D13C4A1268862A3CD03B4C3C486F
:1022F00025780278002D85F00105257042F0020452
:1023000082F00102027009EBC4024FF0000050603D
:1023100014BFC822882249F83420DEE52B4B304810
:102320003049314C022583F8945002702F480C60DC
:102330002F4D48608C600D24CD60FF200A618A61BA
:1023400083F8C04001219F2483F8880083F880002F
:1023500083F8982083F88C0083F8844083F89410E5
:1023600005B0BDE8F08F234A0F201070BEE73F2F65
:10237000A7D890E607F07F07042F3FF6E8AE000CE1
:102380007FF4E5AE054A12F8273023F0020302F885
:102390002730002213464FE6DC90FF1FC020074085
:1023A0005090FF1F5891FF1F5491FF1F3091FF1F46
:1023B0001C91FF1F2C91FF1F3491FF1FE490FF1F02
:1023C000F490FF1F0C91FF1F3C91FF1F002007405E
:1023D000D690FF1F4B91FF1F4C91FF1FD590FF1F01
:1023E000D490FF1F0080FF1F880040005490FF1F03
:1023F0009490FF1F3191FF1F484B49491B780B7088
:102400000B4619E6464A00231380454B022213E689
:102410004FF001032370434BB34204F101047FF4F6
:10242000CAAE414E039CDFF80481414F0023337054
:10243000042518F8013B3F4AAB541B0725D445F04F
:10244000020145F0030204350023142D49F8313010
:1024500049F83230EDD1384F25783A7842F0020011
:1024600009EBC00C85F00106CCF80430002D4DD1ED
:10247000882382F0010226703A7049F83030012337
:102480008AF894302BE52570C5E700F0B1F80028F4
:1024900032D009EBC5030830586049F8357000F0B8
:1024A000A7F808B345F0010309EBC30208305060F8
:1024B00049F833B0C3E7214A5368002B3FF447AED5
:1024C000000CBFB204E013690C32002B3FF43FAEA6
:1024D00011888142F7D15188B942F4D1000A03280A
:1024E0000CBF1A781289A7E533780133337045F0B1
:1024F000010349F83300A2E7337849F83500013386
:102500003370CCE7064B022296E500BE2670C82346
:1025100082F001063E7049F83030BCE53091FF1F73
:10252000DC90FF1FF490FF1F3C91FF1F5C26010011
:1025300088004000C0200740D490FF1F08260100FB
:1025400070B500F01BFB00231A4A194642F83310FD
:1025500002EBC3000133142B4160F7D1164C174B2B
:10256000606B174D40F480206063C2F3072483F84A
:102570009C40144CFF204FF0010CC2F30746120E92
:1025800083F8B0604FF0E02E83F8B42083F8800029
:1025900083F88800187483F894C0217083F884C08D
:1025A000702385F849304FF400721023CEF80821CB
:1025B000237270BD0080FF1F008004400020074090
:1025C00000E400E00021074000F0ACB800F07CB867
:1025D00000F056B800F090B800F076B900F050B9AD
:1025E0000846114600F0BAB8084600F03BB900BFF3
:1025F00072B60D490B68B3FA83F00B2810DC4FF06C
:102600000042C24023EA02030B6062B6074A00EBB5
:10261000C000C10002EBC00000235350436070476C
:1026200062B60020704700BF3887FF1FBC83FF1FC2
:102630000E4BC31AB3F5587F10D20D4A127872B9F7
:1026400072B60C4A0C49A2FB032308684FF0004203
:102650001B0922FA03F303430B6062B67047074A73
:102660001278002AECD0FFF72DBB00BFBC83FF1F00
:102670003C91FF1F398EE3383887FF1F3091FF1FD1
:1026800038B50F4C206878B143880288C1180133EF
:102690009A420D7A02D94380284638BDFFF7C8FF19
:1026A00000232360284638BD064B1B782BB103203E
:1026B000FFF7D0FA20600028E6D14FF0FF35EBE7B6
:1026C0004091FF1F3091FF1F10B5094C206818B1D1
:1026D00043881844007A10BD064B1B782BB10320A9
:1026E000FFF7B8FA20600028F2D14FF0FF3010BD9C
:1026F0004091FF1F3091FF1F084B094A1B6810B51E
:1027000094881BB11A885B88D31A1C440CB12046EC
:1027100010BD00F029F9204610BD00BF4091FF1FF9
:102720003491FF1F0B4B1B789BB110B50A4C2068EE
:1027300048B1FFF77DFF002303202360FFF78AFAEB
:1027400030B1FFF775FF0320FFF784FA0028F8D1B6
:1027500010BD70473091FF1F4091FF1F2DE9F04FD2
:10276000DFF8EC9083B0012289F80020019179B361
:10277000384FDFF8E480019D384EDFF8E4A083464F
:102780003968A1B3B1F802E0CEF1400CAC4528BFE6
:10279000AC460EEB0C040022A4B23270A5EB0C0583
:1027A0004C8001F10802BCF1000F0AD00EF1FF3E8F
:1027B0007244DC441BF8014B02F8014FDC45F9D1AF
:1027C0004C883F2C0BD805228AF80020002DD7D149
:1027D0000198002389F8003003B0BDE8F08F402253
:1027E0000A800420FFF7AEFA00223A60EBE798F87F
:1027F00000202AB348F6014408E0013C19D03278A1
:10280000BAB900F0B1F898F80020CAB10420FFF777
:1028100043FA0728F1D84FF0010389F80030FFF799
:10282000E7FE014638600028ACD1013C89F8000081
:10283000E5D101234FF0FF30337003B0BDE8F08FD6
:1028400000234FF0FF3089F8003003B0BDE8F08F6F
:102850004591FF1F4891FF1F3091FF1F4491FF1FBB
:102860005C91FF1F00B583B0034601210DF1070005
:102870008DF80730FFF772FF03B05DF804FB00BF6F
:1028800038B50E4D0E4C28680123237028B14088BE
:102890000023C0F14000237038BD0A4B1B7813B9E8
:1028A0000020207038BD0420FFF7F6F90728F7D87C
:1028B000FFF79EFE28600028E9D1F1E74891FF1F4D
:1028C0004591FF1F3091FF1FF8B5114B1B788BB15D
:1028D000104E114D346801272F7064B10F4B002743
:1028E0001F706388238021460420FFF72BFA37608E
:1028F00000232B70F8BDFFF77BFE084B014620B18B
:1029000004201C70FFF71EFAF2E71F70F0E700BF0B
:102910003091FF1F4891FF1F4591FF1F5C91FF1FE2
:1029200038B50E4B1B7853B90D4C216841B103F0FB
:10293000FF054B880B800420FFF704FA256038BDA3
:10294000FFF756FE014620B1BDE838400420FFF7EE
:10295000F9B9044B01221A7038BD00BF4591FF1F21
:102960004891FF1F5C91FF1F2DE9F843324E3378E9
:1029700063B1324F3A784AB90122D9073A7043D449
:102980009A0726D400225B073A7001D4BDE8F88389
:102990002B4B1A68002AF9D0EFF30582002AF5D1F3
:1029A000EFF3108572B6186800283AD0254C2178CC
:1029B000002936D142691A6001232370002A37D0DA
:1029C000916105B962B600258368457798472570FF
:1029D000DCE7DFF8748098F80020002AD2D00025C8
:1029E000DFF868902B4659F82340236820461B697E
:1029F0000135984708B12369984798F80020EBB251
:102A00009A42F0D83378BDE7FFF776FE68B9104BED
:102A10001B780BB93378B3E7337803F0FE033370D8
:102A2000AEE7002DB2D162B6B0E700F0A5F8EEE750
:102A3000084B1A60C5E700BF3C87FF1F5D91FF1F71
:102A40006091FF1F6C91FF1F8091FF1F7491FF1F0A
:102A5000042601007091FF1F70B5EFF3108272B66B
:102A60000C4C206880B10C4E00254369236073B183
:102A70009D6102B962B6836845779847EFF310828B
:102A800072B620680028F0D102B962B670BD33601A
:102A9000EFE700BF6891FF1F6491FF1FFFF7DCBFE6
:102AA000024A136801331360704700BF5090FF1F44
:102AB0002A4B2B4A6020E12118705970137829485D
:102AC000082B34D00A2B20D00C2B274B0CBF152100
:102AD0003D2112228160C2609960DA60234B214956
:102AE0001B78214ACBB101230B621362204B1D4995
:102AF0001B781D4A012B13D9042B1BD884234B624E
:102B000053621C4B01221A707047174B1921132274
:102B10008160C2609960DA60E0E70B621362E5E70A
:102B200080234B625362134B01221A7070470E4B85
:102B30000121ECE7082B06D885234B6253620D4B2D
:102B400001221A707047102B94BF862387234B6293
:102B50005362084B01221A70704700BF00400740C3
:102B60003D87FF1F00B0034000B00B408191FF1F65
:102B70003E87FF1F8291FF1F704700BF10B584B0D2
:102B800072B6174A702441200F2180231470D0712F
:102B90009171137013781B06FCD5906862B6114BC7
:102BA000114C984238BF00EB800001A938BF4000AB
:102BB0000A22FEF767FF01A92046002311F8012B26
:102BC00001333AB10A2B20F8022FF7D116232370D4
:102BD00004B010BD5B00DBB2237004B010BD00BFB9
:102BE0000000024080969800CC87FF1F03460846ED
:102BF000194609F01BBE00BF0868B0F1804F08B548
:102C000019D2904212D9B0EB420F4FEA42030DD2D3
:102C1000B3F1804F08D36FF040430B604FF080401A
:102C2000BDE80840FEF728BF0B601846BDE8084025
:102C30000130FEF721BF014800F0A0FE6026010030
:102C40001EB400F08DF81EBC08F0C4F9F0B502788F
:102C5000472A83B00C461D4619D0264E0020336803
:102C600001909B683046984778B1019B1B6801939F
:102C700002272368314620461E6901AA0123B04776
:102C800010BB0746384603B0F0BD0127F1E7437893
:102C90004E2BE2D18378552BDFD1C378432BDCD187
:102CA0000379462B1AD00379432BD6D143792B2BAA
:102CB000D3D183792B2BD0D1C379012BCDD808D098
:102CC00050F8206C5830CAE7019B2B60384603B09F
:102CD000F0BD50F8200C50F8786CC0E743794F2BCA
:102CE000E1D18379522BDED1C379002BDBD1024EA7
:102CF0001846B4E7942601008C26010010B504465E
:102D000000F0FEF8224612F82039472B04D08368E1
:102D100023BB8260012010BD63784E2BF7D1A378CE
:102D2000552BF4D1E378432BF1D12379432BEED10A
:102D300063792B2BEBD1A3792B2BE8D1E379012BF2
:102D4000E5D854F8043C0133012B44F8043CE1D1AC
:102D5000836844F8083C8260012010BD00F0F2FB5B
:102D600008B500F0CDF8836883B393F82020472A94
:102D700004D00022826003F1200008BD93F82120D6
:102D80004E2AF6D193F82220552AF2D193F8232027
:102D9000432AEED193F82420432AEAD193F8252040
:102DA0002B2AE6D193F826202B2AE2D193F827206C
:102DB000012ADED8DA69013ADA61002ADBD19969A1
:102DC000816000229A6103F1200008BD00F0BAFB87
:102DD00038B5044600F094F82246056812F8203908
:102DE000472B03D085BB0260284638BD63784E2B45
:102DF000F8D1A378552BF5D1E378432BF2D1237981
:102E0000432BEFD163792B2BECD1A3792B2BE9D179
:102E1000E379012BE6D854F80C3C002B11DB01338D
:102E200044F80C3C4368013B4360954218BF44F8AA
:102E3000105C656A18BF0260204607F0F1FC284666
:102E400038BDC3F10103EBE700F07CFB08B500F0EF
:102E500053F803687BB393F82020472A07D0002259
:102E6000026003F12000BDE8084007F0DBBC93F8E6
:102E700021204E2AF3D193F82220552AEFD193F83E
:102E80002320432AEBD193F82420432AE7D193F857
:102E900025202B2AE3D193F826202B2ADFD193F883
:102EA0002720012ADBD85A69002A05DB013A08D01D
:102EB000511C0ED05A6108BD0132FBD11969016065
:102EC000F8E71A69026003F12000BDE8084007F046
:102ED000A9BC00F037FB00BF704700BF704700BFC0
:102EE000004870477826010010B504210446FEF71B
:102EF000C7FD204610BD00BF004870478491FF1FEA
:102F0000004870478491FF1F502870B51DD084463B
:102F100000F00F000C2855D8DFE800F00744260722
:102F20001E545454542A22071E00104650F8046BB5
:102F30004EB10CF07004102C08BF11460E441CF06A
:102F4000800F18BF36681E6070BDD01C20F00300D3
:102F500050F8046B1E6070BD104650F8086BE7E730
:102F6000104630F9026BE3E7104630F8026BDFE7FA
:102F700000261046344610F8015B05F07F0E0EFA6D
:102F800004FE15F0800F46EA0E0604F10704F2D1A4
:102F90001F2CCDD86D06CBD54FF0FF3505FA04F4C4
:102FA0002643C6E700261046344610F8015B05F0BC
:102FB0007F0E0EFA04FE2D0646EA0E0604F1070403
:102FC000F3D4B5E7FEF756FDFF2808B5034619D040
:102FD00003F07002302A084616D005D8202A09D1FD
:102FE000BDE8084008F0D9B9402A09D1BDE8084039
:102FF00008F0C0B902D813F0600F03D0FEF73AFD15
:10300000502AFBD1002008BDBDE8084008F0C2B935
:10301000F8B50C461546064608B108F0ABF928602D
:1030200014F8017BFF2F28D16860204610F8013B7F
:10303000FF2B32D0102300242B75224610F8011BE1
:1030400001F07F039340090644EA030402F10702FA
:10305000F4D40444EC6010F8013B6B750024224664
:1030600010F8011B01F07F0393401C430B0602F193
:103070000702F5D404442C61F8BD31463846FFF709
:10308000A3FF224601462B1D3846FFF73DFF0446AD
:10309000204610F8013BFF2BCCD12B750024D9E73B
:1030A0002DE9F04F00F0030493B00023012C0893A6
:1030B0000F46904613D0022C08D14146384608F0FE
:1030C00043F940B9082013B0BDE8F08F002C00F0A0
:1030D0009380FEF7CFFC092013B0BDE8F08F0DF10F
:1030E000300A10F00804CDF800A000F09A8044F0F7
:1030F000020202920C910C221946404607F0BEFBD8
:10310000404608F03DF983460028D6D05246014695
:103110004046FFF77DFF414605469DF84400FFF716
:1031200053FF0DF12C0900230E901946CDF80090A5
:103130000F22404607F07CFB0B9B23F001035E1E31
:10314000109B9D4280F0BD809DF8454000212046A7
:10315000FFF73AFF2A46014609AB2046FFF7D4FEA7
:103160009DF84550044600212846FFF72DFF2246D2
:1031700001460AAB2846FFF7C7FE9DF845500446B6
:1031800000212846FFF720FF224601464B462846ED
:10319000FFF7BAFE00240546224615F8011B01F090
:1031A0007F0393401C430B0602F10702F5D40C9BEE
:1031B000099A1344B34217D9029BD8072DD500248E
:1031C000039400231946CDF8009040460D22089D37
:1031D00007F02EFB039B3B630B9BC7F82CB0C7E9A2
:1031E000095406203B626EE70A9A1344B34272D830
:1031F000109BAB42A8D8DFE702073FF55EAF012383
:1032000002930DF1300A0023CDF800A00C221946DC
:1032100040460C9707F032FB72E7190758D500F0CB
:1032200091F90D6A23460D222146404607F000FB26
:103230000C9B9D4202D002230293E4E723462146E1
:103240000C22CDF800A040460C9707F017FB3A6B14
:103250000392D7E90A43002A3AD09B460DF12C0984
:10326000002C54DB032500231A461946CDF80090A4
:1032700040460B9707F002FB002319460122CDF8C8
:10328000009040460B9407F0F9FA002319460F22EC
:10329000CDF80090404607F0CBFA0B9A0399CDF891
:1032A000009002F001020A4300230B9240460F22D5
:1032B000194607F0E3FA022D24D0072013B0BDE829
:1032C000F08F029BDE073FF57AAF029B1B07A6D467
:1032D000384606F0F1FC0B9B002B3FF4EEAE0D9A46
:1032E00013440393002C36D1002B3FF4E6AE029B2F
:1032F000DD073FF5E2AE029B1A0740F1168100247C
:103300000225B0E73846FFF7F9FC0720DBE66FF04F
:1033100040431B1B1E46524659464046FFF778FE67
:103320009DF844004146FFF74FFE0E9005460F986A
:1033300050F8263000EB860033B10246002352F8E5
:10334000041F01330029FAD1C7E90A350423786341
:103350003B63032587E7109E039B013C2644002B1B
:103360003FF4ABAE029B002E00F0D78013F00803B1
:10337000049300F0C98047233B704E237B70552394
:10338000BB704323FB7046233B714F237B71522359
:10339000BB710023FB710023CDF818B0CDF8148069
:1033A0009B46CDF81CA00024224616F8011B01F014
:1033B0007F039340080644EA030402F10702F4D4B1
:1033C0001F2A05D8490603D5012393405B421C43BD
:1033D000002530462A4610F8011B01F07F03934078
:1033E0001D430B0602F10702F5D41F2A05D84B0630
:1033F00003D5012393405B421D43002C34D036DCBF
:1034000017B1049B002B4FD06FF0404A0F9BAAEBE3
:10341000040A53F82A30B3B1002D6AD02E44C2E713
:10342000A3005B420F9A0E991A444B46FFF76CFDBE
:103430000B9941B1002FEFD008AB00223846FFF7BF
:1034400005FC0028E8D0029BDDF81CA0DB07DDE9C5
:10345000058B3FF5B6AE049B002B3FF401AF002C6B
:10346000BFF600AF00F07CF84FF0010BD4E79DF8F9
:103470004400FF2831D000F00703042B3FF629AEAB
:1034800001A252F823F000BF21340000D330000025
:10349000A3340000213400009D340000E3005B42AF
:1034A000C0E763005B42BDE76FF0404A0F9B089A9C
:1034B0000B92AAEB040A03EB8A0853F82A1019B9F5
:1034C0000DE058F8041F51B141444B4600223846E4
:1034D000FFF7BCFB0028F4D09EE70023A2E7029B85
:1034E000D8075646DDE9058BDDF81CA03FF569AE2F
:1034F00011E75B46DDF81480002B3FF4DEAD029B44
:10350000D9073FF5DAADFAE6FB79012B0CBF57F886
:10351000203C07F1580308933DE7DA073FF5CDADAE
:10352000029B13F008047FF4EAAE02259BE6FFF746
:103530004FFC74E608B58047FEF79CFAFFF748FC9D
:10354000FEF798FA08B5034B1868BFF35B8FFFF7D7
:10355000F1FF00BFE887FF1F08B58047FFF7F2FFC4
:1035600008B5034B1868BFF35B8FFFF7F5FF00BF8B
:10357000E487FF1F024B1868BFF35B8F704700BFE3
:10358000E887FF1F024B1868BFF35B8F704700BFCF
:10359000E487FF1F012810B51AD8BFF35B8FA1F194
:1035A000280353E8002F013A43E800200028F8D10F
:1035B000BFF35B8F5AB951F81C3C01F158040BB1B1
:1035C000204698472046BDE8104006F033BB10BDAA
:1035D00051F8140CFFF7AEFF38B5002540E91E1274
:1035E00040F8805C0446FFF7CDFF44F8700CFFF70D
:1035F000C1FF43222B23472104F8552C04F8542CF7
:1036000004F8533C04F8523C4E22552304F8581C4D
:1036100004F8515C054904F8572C04F8563C44F86A
:103620006C0C44F8501CA4F1800038BD95350000A6
:1036300070B504460D461646FFF762FC4368013339
:103640003246294643602046FFF7C6FF0446012361
:1036500044F8283B204607F0ABFC2046FFF7B8FBB8
:10366000FFF770FF10B5FFF74BFCD0E900420132C5
:10367000426064B194F82020472A0AD000220260F8
:103680002034204607F0B8FC2046FFF7A1FBFFF7E7
:1036900059FF94F821204E2AF0D194F82220552A7F
:1036A000ECD194F82320432AE8D194F82420432A2B
:1036B000E4D194F825202B2AE0D194F826202B2A57
:1036C000DCD194F82720012AD8D86269524262617D
:1036D000D6E700BF10B5034B0360044600F0A2F923
:1036E000204610BD6827010010B5054B0360044655
:1036F00000F098F920460C21FEF7C2F9204610BDD3
:103700006827010070B582B00446069E96420D46B9
:1037100009D0A06804680696246A2946A44602B027
:10372000BDE87040604719460192009300F062F8CE
:10373000DDE900320028ECD0062002B070BD00BFE9
:103740002DE9F04F0D4681B01946DDE90A7ADDE931
:103750000C981C460646934600F04CF880B94F453D
:1037600025D0B06823460468CDE90C98CDE90A7AE3
:10377000E4695A462946A44601B0BDE8F04F6047C7
:10378000002DC8F8007088F804B00ADB2F44B94552
:103790000CBF0627012788F80670002001B0BDE89D
:1037A000F08F0235F9D1012388F80630F5E751464C
:1037B000304600F01FF80028D3D088F805B0ECE7B9
:1037C0002DE9F04106460F4614461D4600F064F907
:1037D00048B9B068016822468C692B463946A44630
:1037E000BDE8F0416047BDE8F08100BF704700BF11
:1037F00000207047814211D008B5406803782A2B19
:103800000AD049680B782A2B08BF013109F04CF81F
:10381000B0FA80F0400908BD002008BD01207047C3
:1038200070B53B4B1A7882B0002A41D101241C703C
:1038300006F0C4FA002831D04468364D23782A2B8C
:1038400008BF013400224FF0FF30114601AB019058
:10385000204606F005F92B683022DB680646012178
:103860002D4808F0EFFD019B93B12B682046D968E5
:1038700008F0EEFB2B682948DB680222012108F0E2
:10388000E1FD019B13B9304607F0D6FDFFF7EAFED4
:103890002B683046D96808F0DBFBEBE71D4B20486E
:1038A0001B682D22DB68214608F0CCFDFEF7E2F80C
:1038B000184B1C481B681D22DB68012108F0C2FD63
:1038C000FEF7D8F801290C4619D1FFF781FA0368F1
:1038D0009B6898472B682146DB6804460B221248F8
:1038E00008F0B0FD2B682046D96808F0B1FB2B68C2
:1038F0000A20D96808F03CFBFFF7A8FAD6E7FFF7E3
:1039000067FAFFF7A3FAD1E7FFF7A0FAFFF798F9F4
:103910009091FF1F988EFF1FC4270100F827010018
:10392000FC270100A42701002C28010008B5042071
:1039300006F068F9024B034A03490360FFF778FE7B
:103940006C280100B53900004828010038B505464B
:10395000082006F057F92946044606F0C7FA054A3A
:1039600005492046FFF764FE204606F063F9FFF79D
:1039700067F900BFDD9D0000C839010038B5054674
:10398000082006F03FF92946044606F0EFFA054AFA
:1039900005492046FFF74CFE204606F04BF9FFF79D
:1039A0004FF900BF1D9E0000D43901000048704748
:1039B0003828010010B5034B03600446FFF78CFA6A
:1039C000204610BD6C28010010B5054B036004466D
:1039D000FFF782FA20460421FEF752F8204610BD78
:1039E0006C28010070B5036884B000249E690394BC
:1039F000102315460293CDE900446B461268B04788
:103A00009DF8043003F00603062B03BF009B2B60D8
:103A10000120204604B070BD0098904214BF0120E0
:103A20000620704710B5034B03600446FFF7DEFE27
:103A3000204610BDB028010010B5054B03600446B8
:103A4000FFF7D4FE20460821FEF71AF8204610BDE5
:103A5000B02801002DE9F041069F0899099E8F4288
:103A6000044690461D460CD029462046FFF7C2FE6C
:103A700020B10123376086F80480B3710020BDE8CF
:103A8000F0810799FFF7B6FE0028EDD086F8058093
:103A90000020BDE8F08100BF38B515461C46FFF791
:103AA000A9FE00B938BD082206232560E260237113
:103AB00038BD00BF2DE9F041064617461D460C46AD
:103AC000FFF798FE48B9032D07D823683A463146D8
:103AD00020465B69BDE8F0411847BDE8F08100BFB2
:103AE000312970B5864645D828292AD80A2920D9EF
:103AF000A1F10B0C324C5FFA8CFC012000FA0CF0A7
:103B00000440002C4DD0D2B1DEE90540844216DAE3
:103B1000DEF8105004EB840C05EB8C000134002619
:103B2000C0E90166CEF8144005F82C10C0E9032363
:103B300070BD042930D9A1F109000128E3D9002082
:103B400070BDA1F129000828F9D801A454F820F08B
:103B5000093B00009D3B0000993B00003F3B0000FB
:103B6000993B0000093B0000093B0000073B0000B7
:103B70009D3B0000A1F13400C0B21D28DFD8114CDC
:103B80004FF0010C0CFA00FC0CEA0404002CBAD132
:103B90000D480CEA000070B1002AD0D0002BB3D140
:103BA000CDE710F47F1FAFD1084C0440002CC6D0E5
:103BB000002AF3D1C3E71CF0505CC0D0A4E700BFDB
:103BC000FE1F802F0711C701F82E000A01004000D8
:103BD000F0B5C26811786E29864625D03039CBB24F
:103BE000092B2BD80026164D00206FF0004402E070
:103BF000B0EBD30F15DC0132CEF80C201378303B3C
:103C00005FFA83FC00EB800001EB4000BCF1090F80
:103C10001946A4EB0303A5FB0373E9D906B140429F
:103C2000F0BD4FF0FF30F0BD531CC3605178303908
:103C3000CAB2092A02D81A460126D4E70020F0BDEC
:103C4000CDCCCCCC10B5044629B9C3681A786AB17A
:103C50005A1CC260197868290CD0762906D12046F2
:103C6000FFF7B6FFE3681A785F2A01D0002010BD85
:103C70000133E3602046FFF7ABFFE3681A785F2A61
:103C8000F4D10133E360012010BD00BF10B4C3685C
:103C90000A46197852290ED04F2902D0104610BC7E
:103CA0007047C46A202103340133C462C36010BC6E
:103CB0000023FFF715BFC46A1F210234F4E700BFD9
:103CC000002966D038B505460C46A368012B39DCBF
:103CD000D5F81C01B0F5806F03F1010332DC2278C6
:103CE000A360531E502B2DD8DFE803F03131314C47
:103CF0002C2C2D2D313131313131313131313131C6
:103D00003131312C31313131313131313131424286
:103D100031312C313131312931313131312C2D31A9
:103D2000313131313131313131313131312C2C318D
:103D3000292929292C313131313131313100E468DF
:103D4000002CC2D138BD2469002CBED1FAE7E1684D
:103D5000431CC5F81C312846FFF7B2FF21692846ED
:103D6000FFF7AEFFD5F81C31013BC5F81C3138BD5B
:103D7000E1680B78052BEBD1D5F838310133C5F864
:103D80003831E5E7D5F84431E1680133C5F844310D
:103D9000DEE77047034600202BB909E0DA682AB154
:103DA0001B6901301BB11A782F2AF7D07047704772
:103DB00018467047C3681A785F2A01D001207047FF
:103DC00010B55A1CC2605A785F2A044604D0FFF727
:103DD000FFFEC043C00F10BD0233C360FFF7F8FE03
:103DE000002809DB092805DDE3681A785F2A03D17A
:103DF0000133E360012010BD002010BD20B909E0AF
:103E000039B10069013930B103782F2BF8D0002087
:103E10007047C06870477047F0B514465268A5688F
:103E20004B1C1344AB4283B00E46074611D8E568DD
:103E30006DB963682068324618443946FDF7E0FCE6
:103E4000D4E9003233449D5463683344636003B063
:103E5000F0BDE268002AFAD155B16D00AB42FCD842
:103E60002068294607F0ACFD38B12060A560DEE788
:103E7000022B4FF00205F0D8F2E70190206807F01E
:103E8000DBFA019B0122C4E90033C4E90232DEE718
:103E90000378722B07D0562B05D04B2B03D0442B25
:103EA00003D00020704701207047407800F0DF0306
:103EB0004F2BF8D0773801288CBF002001207047A5
:103EC000D0F80031FF2B70B504460D4606D05A1CC1
:103ED000C4F80021E55484F8045170BD0026194649
:103EE00080F8FF60D0E942329847D4F828310122A7
:103EF0001344C4F828313346C4F80021E55484F84B
:103F0000045170BD0346D0F8100190B1CB684268EF
:103F1000002B10690BDB20B909E03BB10069013BC4
:103F200030B102782F2AF8D000207047C06870475F
:103F300070470122C3F81821704700BF002940D004
:103F40002DE9F041DFF88080204F05460C46012620
:103F50002378082B13D8082B1ED8DFE803F00D1D9B
:103F60001D1D1D270D232300172B15D9183BDBB270
:103F700027FA03F3DB070FD50020BDE8F0812C2BD7
:103F8000F2D9323BDBB21B2B06D806FA03F212EA57
:103F9000080FF1D1012B05D0E1682846FFF7CEFFCD
:103FA0000028EAD12469002CD2D1E5E72146284631
:103FB000FFF7A8FF0028DFD003782F2BDCD1BDE866
:103FC000F0810020704700BF0100E30C0180100069
:103FD0002DE9F041044608460D4608F0B1FE40B315
:103FE000013DD4F800112F184FF0000809E00B46EE
:103FF000BD4201F10101C4F80011E65484F80461E6
:1040000017D0FF2915F8016FF1D1D4E9423284F8B5
:10401000FF8020469847D4F8283101210B44C4F88A
:1040200028310023BD42C4F80011E65484F804612D
:10403000E7D1BDE8F08100BF38B5C3681A78542ACB
:1040400024D15A1CC2605A785F2A044620D06E2AB6
:104050001CD0FFF7BDFD411C18D4E3681A785F2A15
:1040600014D10133D4E905208242E3600EDA2369DA
:1040700002EB820C03EB8C0001320025C0E90155F4
:104080006261052203F82C20C16038BD002038BDD4
:1040900002330021E6E700BF2DE9F04188B00A466F
:1040A00004461A4901A807F083FE01A808F048FE5B
:1040B00040B301ADD4F800112F184FF0000809E00B
:1040C0000B46BD4201F10101C4F80011E65484F829
:1040D000046117D0FF2915F8016BF1D1D4E9423200
:1040E00084F8FF8020469847D4F8283101210B44FA
:1040F000C4F828310023BD42C4F80011E65484F806
:104100000461E7D108B0BDE8F08100BFD428010008
:1041100070B50446FFF75CFD051E46DDE668636882
:104120009B1B9D423EDCA26873195207E36004D5D5
:10413000725D242A04BF0133E360092D22DD2A4980
:104140000822304608F0F4F930B9337A2E2B2ED0FD
:104150005F2B2CD0242B2AD0D4E90532934221DACC
:10416000206903EB830200EB820001330022C0E9E7
:104170000122636100230370C0E90133C0E90365D4
:10418000A06270BDD4E9053293420BDA206903EBDB
:10419000830200EB820001330022C0E90122636147
:1041A000002EE7D10020A06270BD002070BD737AA0
:1041B0004E2BD1D1E26A6369A1691632521B8B4240
:1041C000E262EFDA226903EB83008100013363616D
:1041D00002EB80000023C0E901335354034A152346
:1041E000C0E90323DFE700BFD8280100E42801006D
:1041F0002DE9F041C3681A78532A31D15A1CC260A4
:104200005A780446A2B39A1CC2605A785F2A44D0F6
:10421000A2F13003D8B2092826D800210DE0303BA6
:1042200099421DD8E06802781946451C1AB1E5602C
:1042300002785F2A3BD0A2F13003D8B2092801EB03
:10424000C103A2F1410C02EB8303E8D9BCF1190FC1
:1042500006D801EBC10302EB8303373B9942E1D956
:1042600000252846BDE8F081A2F141001928D4D9E3
:10427000A36803F00803002B14BF0125002500D11B
:10428000B9B93F4B742103F1A80001E013F81C1FDA
:10429000914215D08342F9D1E2E70023226A9A4283
:1042A000DED9E26952F823502846BDE8F081013397
:1042B000F4E7E3681B78433B012B98BF0D46E0E72A
:1042C0005E69002E54D0D4E905208242D3F81880CC
:1042D00053DA276902EB820C07EB8C014FF0000EDA
:1042E000C1E901EE01324FF0180E626107F82CE0CF
:1042F000C1E90368A162002D37D0D3E90371E36AF5
:1043000082420B44E36236DA236902EB820003EB5C
:10431000800501320026C5E901666261182203F8B2
:104320002020C5E90371E3681A78422A99D1A66A68
:104330000133E3602046FFF7EBFE2A4603464D219A
:104340002046FFF7CDFBE3681A78422A0546EFD0F6
:10435000A662002884D0D4E90832934280DAE16969
:104360005A1C41F8230022627BE7D3E90171C6E7BA
:10437000D4E90520BFE70025D5E70021BAE700BF53
:10438000043901002DE9F043C26883B004461046A9
:10439000FFF77EFD002866D113785A2B31D82F2BDA
:1043A0005CD9303B2A2B59D8DFE813F08C008C0005
:1043B0008C008C008C008C008C008C008C008C009D
:1043C0005800580058005800580058005800D601AE
:1043D0005800D900ED005800E7006001580058006F
:1043E00058005800580018028C00CB00BD0058003F
:1043F000AF0095016E01BE015800580058005800EA
:104400008C00613B5FFA83FCBCF1190F26D8C44DC8
:10441000012101FA0CF10D40EDB1C24903EB830318
:1044200001EB8301D4E90535AB4280F2C5832669EF
:1044300003EB830C06EB8C050133C5E901006361D6
:10444000272306F82C30E960E36A496801320B44FF
:10445000E260E36203E0BCF1140F48D00025284677
:1044600003B0BDE8F083002201A9204601F0D2FA92
:1044700005460028F2D0E3681B78462B20461ED064
:10448000FFF780FF28600028E8D003781F3B012B4E
:1044900005D8019AC368C2602A6801922B60019D09
:1044A000002DDBD0D4E908329342D7DAE1695A1CF7
:1044B000284641F82350226203B0BDE8F08300F0A3
:1044C000FDFBDFE7204601F0CDFD05460190002D04
:1044D000C4D0D4E908329342C0DAE16941F82350EC
:1044E000019D5A1C2846226203B0BDE8F0830132C8
:1044F000E2602046FFF70CFE2B46024628212046AC
:10450000FFF7EEFA05460190E1E70132E26020464E
:10451000FFF738FF0023024623212046FFF7E0FA89
:1045200005460190D3E70132E2602046FFF72AFFFB
:104530000023024622212046FFF7D2FA05460190C9
:10454000C5E70132E2602046FFF71CFF0023024668
:1045500024212046FFF7C4FA05460190B7E701324F
:10456000E2602046FFF70EFF002302462521204689
:10457000FFF7B6FA05460190A9E7204600F09EFB3A
:1045800005460190A3E7531CE3605378002B3FF4EA
:1045900065AF931CE3605378463B302B3FF65EAF2C
:1045A00001A151F823F000BF494800005D4400001C
:1045B0005D4400005D4400005D4400005D44000077
:1045C0005D4400005D4400005D4400005D44000067
:1045D0005D4400005D4400005D4400005D44000057
:1045E0000D4800005D4400005D4400005D44000093
:1045F0005D4400005D4400005D4400005D44000037
:104600005D4400005D4400005D4400005D44000026
:104610005D440000E14800005D440000B548000032
:10462000CF4A00009F4A00003D4900005D44000061
:104630000D4900006F4A00005D4400005D44000029
:104640005D4400005D4400003F4A00005D440000FE
:10465000274A00005D4400005D440000F749000067
:104660000D480000C74900006D4900000132E260BA
:104670002046FFF787FE0023024626212046FFF74B
:104680002FFA0546019022E72046FFF7D5FCE668A1
:1046900001903378492B05467FF419AF636B002BEB
:1046A00040F0578200283FF4D9AED4E908218A426D
:1046B000BFF6D4AEE16941F82200013222623278BD
:1046C000493A012A05D80136E660204600F00CFE82
:1046D00003462A461CE05378A3F13002092A05D983
:1046E0005F2B03D0413B192B00F22682002120468C
:1046F000FFF77EFDE36801901A78492A05467FF4AA
:10470000AEAE0133E360204600F0EEFD2A460346DC
:1047100004212046FFF7E4F905460190D7E600BFE3
:10472000FF7BEC03CC3101000132E2602046FFF751
:10473000EFFCE36801901A78492A054600F0E18110
:104740002046FFF71FFE2B46024621212046FFF799
:10475000C7F905460190BAE6551CE56053785F2B12
:1047600000F0CD81303B092B00F2D8812B469C46CE
:104770000133E360197830390929F8D9D4E90510F3
:104780008142ACEB0202BFF669AE276901EB810002
:1047900007EB80064FEA800E002001318242C6E915
:1047A000010061617FF75AAEC6E9010007F80E000B
:1047B000C6E903529CF801201D465F2A7FF44EAEE5
:1047C0000135E5602046FFF7DDFD324603462A212C
:1047D0002046FFF785F90546019078E60132E26050
:1047E0002046FFF7CFFD054600283FF437AE2046B0
:1047F000FFF7C8FD034600283FF430AE2A462B21C0
:104800002046FFF76DF90546019060E60123256B10
:104810002363204600F030FE256302460023442136
:104820002046FFF75DF90546019000283FF416AEDB
:10483000E3681A78002A3FF411AE5A1CE2601B7834
:10484000452B7FF40BAE44E6D4E905318B4280F270
:10485000B581216903EB830001EB8005013300265C
:10486000C5E9016663612C2301F820309378019536
:10487000303BDBB2092B94BF012333462B8202D895
:104880002046FFF7A5F92046FFF77CFDE8600028E9
:104890003FF4E4AD2046FFF79BF9E268137813B1CB
:1048A000531CE3601378A3F17303B3FA83F35B093A
:1048B0006B82D4E5D4E905329342BFF6CFAD2269CD
:1048C000C04903EB8305A8000133636102EB850552
:1048D0000023C5E9013313540E23C5E90313BEE5D4
:1048E000D4E905329342BFF6B9AD2269B64903EB6C
:1048F0008305A8000133636102EB85050023C5E948
:10490000013313540423C5E90313A8E5D4E90532A0
:10491000934280F26B81226903EB830102EB8105F4
:1049200001330020C5E901006361272302F821302B
:10493000E36AA64AEA600433E36290E5D4E905320B
:10494000934280F25381226903EB830102EB8105DC
:1049500001330020C5E901006361272302F82130FB
:10496000E36A9B4AEA600933E36278E593785F2B58
:1049700000F01481D4E905329342BFF66FAD22698D
:1049800003EB830102EB810501330020C5E901003F
:104990006361432302F821302046FFF719F9E860EC
:1049A000E3681A785F2A7FF459AD0133E36020464B
:1049B000FFF7E8FC2A4603462D212046FFF790F832
:1049C0000546019083E5D4E90532934280F20E81D9
:1049D000226903EB830102EB810501330020C5E965
:1049E00001006361272302F82130E36A794AEA6013
:1049F0000733E36233E5D4E90532934280F2F6806F
:104A0000226903EB830102EB810501330020C5E934
:104A100001006361272302F82130E36A6E4AEA60ED
:104A20000833E3621BE52046FFF7ACFC0023024697
:104A30004C212046FFF754F80546019047E5D4E99C
:104A40000532934280F2D280226903EB830102EBAC
:104A5000810501330020C5E901006361272302F8C5
:104A60002130E36A5D4AEA601133E362F7E4D4E996
:104A70000532934280F2BA80226903EB830102EB94
:104A8000810501330020C5E901006361272302F895
:104A90002130E36A524AEA600833E362DFE4D4E992
:104AA0000532934280F2A280226903EB830102EB7C
:104AB000810501330020C5E901006361272302F865
:104AC0002130E36A474AEA600A33E362C7E4D4E983
:104AD0000532934280F28A80226903EB830102EB64
:104AE000810501330020C5E901006361272302F835
:104AF0002130E36A3C4AEA600933E362AFE400260E
:104B00005EE60133E360204600F0EEFB2A460346F2
:104B100004212046FEF7E4FF054611E60123256B3C
:104B20002363204600F0A8FC2563064600283FF4D6
:104B300095ACE5682A7840E6204601F093FA0546F0
:104B4000019000283FF48AAC0378182B7FF4C1ACA5
:104B500085E4731CE3602046D4F81490D4F82080D8
:104B6000E76A00F0C1FBE3681B78492B06D0E660DA
:104B7000C4F81490C4F82080E762A8E4002D3FF444
:104B80006DACD4E908139942BFF668ACE26942F80B
:104B90002150013103462A462162B9E5033201233F
:104BA000256BE2602363204600F066FC2563054622
:104BB00000287FF4F5AE51E4C368FFDE00231B70CC
:104BC000FFDE00BF04290100FC28010010340100B1
:104BD000D433010024340100383401006034010072
:104BE0004C340100FC330100E83301000023DB6892
:104BF000FFDE00BF30B5C26883B000230193137895
:104C0000002B34D0044601AD4F2B0CD009D82E2BED
:104C100001D0452B0AD1019848B30369CBB103B049
:104C200030BD522B02D15378452BF4D02046FFF7EC
:104C3000A9FB024600232E212046C2B1FEF750FFF9
:104C40002860A0B1E268137800F11005002BDBD1D9
:104C5000E1E7C26811782729E1D1D268117C0929DE
:104C6000DDD1E16A5268891AE162C360D7E70020AA
:104C700003B030BD70B5C3681A784A2A05461AD009
:104C800081B12846FFF77EFB044690B12846FFF726
:104C9000B1FF034668B1224628462921BDE870408D
:104CA000FEF71EBF28460C46FFF7A4FF0346002868
:104CB000F1D1002070BD0133C360E2E710B50446B6
:104CC000806810F480200BD1E26BB2F5006F06D83B
:104CD000511CE368E1631978462907D0E26310BDEF
:104CE000E3681A78462A01D0002010BD5A1CE26001
:104CF0005A78592A04BF0233E36001212046FFF7A6
:104D0000B9FF01462046FEF7C1FFE3681A78452A3D
:104D100004BF0133E360A36818BF00205B03DED447
:104D2000E26B013ADAE700BFF8B5C3681F780646C0
:104D300077BB4FF0000E3D4D482100228B1A03EB4C
:104D4000D37302EB6303180105EB031C2C58207886
:104D5000B84206D094BF5A1C19468A42EED10020B0
:104D6000F8BD60787045F5D1D6E905329342F6DAA0
:104D7000326903EB830102EB810001330024C0E9B7
:104D800001447361322302F82130C0F80CC0F8BD31
:104D90005A1CC26093F801E01F78BEF1000F02D1E7
:104DA000762FC8D0C5E79A1CC260762F93F801E031
:104DB0001FD1AEF13004E3B2092BBCD8FFF7A8F93C
:104DC000D6E905318B420246C9DA376903EB830124
:104DD00007EB810001330025C0E9015589007361AB
:104DE000002ABCD03323C0E901557B54C0E90342FB
:104DF000F8BD632F9FD1BEF1760F9CD1D0E90C3462
:104E0000B3FA83F35B094363FFF7BCFA736B0246A3
:104E100033B1002335213046FEF762FE7463F8BDDE
:104E200034213046FEF75CFEF8E700BF7434010021
:104E3000F8B5C3681A78A2F130010929044665D98A
:104E4000552A6CD038D8442A0FD94C2A0AD10133BC
:104E5000C360FFF75DF9054620B12046FEF7AAFFC3
:104E600000283BD100252846F8BD422AFAD9816A9C
:104E700041B10878002840F09180E26A0869024454
:104E8000E2621A78432A00F0C880442A40F0848005
:104E90005A78303A052AE5D801A050F822F000BF30
:104EA000AB4F000003500000F14F0000654E0000C2
:104EB000FD4F0000F74F0000A2F161011929D1D880
:104EC0006F2A056B00F0A0802046FFF72DFF2563B9
:104ED000054618B10378322B00F0C680E3681A78D3
:104EE000422AC0D1A66A0133E3602046FFF710F9D9
:104EF0002A4603464D212046FEF7F2FDE3681A7864
:104F0000422A0546EFD0A6622846F8BDFFF700F911
:104F1000E3681A780546422AE4D02846F8BD5A7854
:104F20006C2A00F0C180742A9CD1591CC1605A7847
:104F3000742A37D19A1CC2609A785F2A00F00881DF
:104F40006E2A8FD0FEF744FE0130E36800F1FD8049
:104F50001A785F2A20D10133D4E905218A42E3601F
:104F600080F20081266902EB820706EB8705013299
:104F70000021C5E901116261492206F82720E86095
:104F8000D4E90820824280F2EA80E16941F82250A7
:104F9000013222621A78BEE70025BCE718287FF4A8
:104FA00071AF6AE70B460025B5E74FF0010ED4E973
:104FB00005209F1C8242E76080F2C280D4F810C0B6
:104FC00002EB82000CEB800501320026C5E9016688
:104FD00080006261002900F0B380C5E90166082203
:104FE0000CF8002085F80CE029619A783B4692E79E
:104FF0004FF0030EDBE74FF0050ED8E74FF0040E3D
:10500000D5E74FF0020ED2E75A786E2A7FF45CAFF4
:1050100002330022C360026356E75A78492A7FD0E0
:10502000A2F1310004283FF61DAF303A0233D6B268
:10503000E360D4E90532934280F28680276903EB6E
:10504000830207EB820501330020C5E901009200CD
:105050006361002978D00723C5E90100BB54E368E8
:105060002E7329611A7856E7C268E36A916812685C
:1050700007330B44E36213786C2B7FF42FAF537824
:10508000692B7FF42BAF9378002B7FF427AF20465A
:10509000FFF73EF82A46034637212046FEF720FD5B
:1050A000E36805461A7836E7591CC1605A786C2ABD
:1050B0007FF478AF0233C360FFF79CFDE3680646D8
:1050C000002842D01A78452A7FF466AF5A1CE26065
:1050D0005A785F2A49D06E2A3FF4C4AE2046FEF7C4
:1050E00077FD0130E36830D41A785F2A7FF454AF3B
:1050F00001336269A169E3608A4233DA216902EB14
:10510000820701EB870501324FF0000CC5E901CCA5
:105110006261472201F82720C5E903601A78FAE6A0
:10512000591CE1609A78A2F13100042813D80333A6
:10513000303AE3602046D6B2FFF724F9A16A78E757
:105140009A7800253B46E6E6E3681A780025E2E611
:105150000333002000E75A7800250B46DBE61A7877
:105160000D46D8E61A780025D5E602330020C0E7C0
:10517000F8B5C26813784C2B32D1531CC3605178F8
:105180005F29044651D05A2913D15A1CE2605B783A
:10519000472B43D0542B41D00021204601F0B0F8DA
:1051A000E3681A780646452A1AD10133E36030468F
:1051B000F8BDFFF7E7F8064690B10378272B12D029
:1051C000E26815786E2D23D03D21452D59D0134628
:1051D00003E0E3601D78452D2FD00133002DF8D179
:1051E00000263046F8BDC3681A7C1AB1E26A5968D5
:1051F000521AE2622549186807F056FB0028DFD1F1
:10520000E2681578452D3ED06E2D01D03D21DEE7B8
:10521000531CE36055783E211A46D6E7204600F03D
:10522000A3FCE36806461A78BDE7931CC360927836
:105230005A2A18BF0026B6D1A7E79D1AD4E905035C
:1052400098421CDAD4F810E000EB80070EEB8703DD
:105250004FEA870C00270130BD42C3E90177606146
:105260000DDDC3E901770EF80C70C3E90325324662
:105270002046FEF735FCE36806461A7893E70023DC
:10528000F5E70025DAE70132E260AAE71429010018
:1052900038B5C26813784C2B20D0044608D8493B57
:1052A000012B16D80132BDE83840C26000F01CB8AE
:1052B000582B0ED101320123056BC260036300F04D
:1052C000DBF8E36825631A78452A0BD10133E360E4
:1052D00038BD2046BDE83840FFF754B8BDE8384037
:1052E000FFF746BF002038BD70B5C368866A1A78DC
:1052F000452A82B004461FD00023019301AD09E086
:10530000FEF7EEFB286000F1100560B1E3681A7843
:10531000452A0BD02046FFF7BBFF024600232F2172
:105320002046002AECD1002002B070BD0198A66290
:105330000133E36002B070BD5A1C0023C2602F210C
:105340001A4602B0BDE87040FEF7CABBF8B5C268A5
:10535000147894B306460F460025A4F130034A2B77
:105360002BD8DFE803F02D2D2D2D2D2D2D2D2D2DBE
:105370002A2A2A2A2A2A2A2A2A2D772B2A2A2A68FE
:105380002A2A2D5F2A2A2A2A2A534B2D2A2A2A2AF8
:105390002A2A2A2A2A2A2A2D2D2D2D2D2D2D2D2D52
:1053A0002D2D2D2D2D2D2D2D2D2D2D2D2D2D2D2D2D
:1053B0002D00F2681478002CCFD100252846F8BDC6
:1053C0003046FFF735FD0346002D4ED10546532CE0
:1053D000EFD0F2681478452CF0D0002FEBD0002DE0
:1053E000EBD0D6E908318B42E7DAF16941F8235076
:1053F000013333621478002CAFD1DEE73046FEF77C
:105400001BFE0346002D30D11D46E2E70121304648
:10541000FEF7EEFE034645BBF26814781D46002CED
:105420009BD1CAE7002DC8D0531CF36054781A46AC
:10543000002C92D1C1E7002DBFD00132F26030467E
:10544000FFF752FF042103462A463046FEF748FB89
:105450000546BCE7537803F0DF03542B304606D0F3
:10546000FFF7E6FC0346002DCED00121ECE7FEF766
:1054700089FF0346C6E700BFC26813784C2B00F0D3
:105480009080542B00F08F80732B2DE9F04104465F
:105490005FD0662B2DD0A3F1300109290CD820460E
:1054A000FFF7C6FC0546002877D0E3681A78492A3A
:1054B0007BD02846BDE8F0816F2B68D0692B40F087
:1054C000818053786C2B4BD10232E2600025117839
:1054D000002962D05378002B5FD04521204600F090
:1054E0005FFA2A46034631212046BDE8F041FEF727
:1054F000F7BA5378702B33D1931CC3609378542B35
:1055000000F063815F2B00F08B806E2B45D0FEF79F
:105510005FFB411C41D4E3681A785F2A3DD16FF0EC
:10552000004201339142E36037D00230D4E90532C2
:10553000934232DA226903EB830102EB81050133E6
:105540000026C5E901666361062302F82130E860A0
:10555000AFE75378722B00F00B81702B00F029819C
:105560002046FFF7E1FB0546B8B10378322B36D071
:10557000342B00F0B48110D8332B0ED1C368032B29
:105580000BD8DFE813F07000DD000A000A00537842
:105590006E2BE5D10232C26081E700252846BDE8C6
:1055A000F081FFF7E5BDFEF747BD0133E36020461C
:1055B000FFF79AFE2A46034604212046BDE8F04143
:1055C000FEF78EBA742B40F0C08053786C2BC7D195
:1055D0000232E260FEF7D6FEE268054677E7C16870
:1055E000E36A8A680E68023A1344E3623378732BE5
:1055F0000FD17278742A0CD1B27852B92046FEF7D6
:10560000C1FE03462A4620463721BDE8F041FEF799
:1056100067BACF68032FC0D8DFE807F025065A2DF8
:105620000332C260012081E73278702A00F0D68010
:105630006D2A00F0D3800027732B40F0CA80737866
:10564000502B40F0C680B378002B40F0C28020463B
:10565000FFF74AFE0346002FD4D01A4639212046D0
:10566000FEF73EFACDE72A4620460023BDE8F0418A
:105670003621FEF735BA712B40F0D8807278752A42
:1056800040F0D480B278002A40F0D0802046FFF766
:10569000F3FE06462046FFF7EFFE07462046FFF7DB
:1056A000EBFE034600283FF478AF3A463C21204603
:1056B000FEF716FA324603463B212046FEF710FA63
:1056C0002A4603463A212046BDE8F041FEF708BAD3
:1056D000EB681B685A78632A00F01B813378662BCD
:1056E00000F04081642B40F034817378692B40F0E6
:1056F0003081B378002B40F02C812046FFF798FBD7
:1057000007463378632B40F0C38072786C2A40F0F0
:10571000BF80B278002A40F0BB804521204600F0CF
:105720003FF9064633463A4639212046FEF7D8F976
:105730002A46034638212046BDE8F041FEF7D0B99D
:105740002046FFF799FE03465CE7752B7FF408AF10
:105750000132C260FEF7DCFC05462046FFF7C4FDBF
:105760002A4603463F212046BDE8F041FEF7B8B97E
:10577000931C816BC360937831B1552B52D8422B67
:105780003AD8303B092B3ED92046FEF7FBFD0646B2
:105790002046FFF74DFBE3681A78492A054600F0DA
:1057A000AB802B46324620460121BDE8F041FEF792
:1057B00097B90232C260FFF75FFE002302464C2118
:1057C0002046BDE8F041FEF78BB90332C2600020ED
:1057D000ACE62046FFF750FE03463CE77178914265
:1057E0007FF429AFE26811785F297FF425AF013299
:1057F000E260337800271FE7674A433BDBB222FAB7
:1058000003F3DB07C0D54FF0FF33A363002120462D
:10581000FFF79CFDE3681A78452A0646B8D10133A4
:10582000E360B5E7613B192BAED8ECE7642B06D1FA
:105830007378582B03D1B378002B3FF427AF33781C
:10584000662B00F094806E2B7FF4A7AE7378772BD5
:1058500002D0612B7FF4A1AE5F21204600F0A0F8BA
:1058600006462046FEF78EFDE3681A78452A07466D
:1058700000F08D80702A7ED0692A7FF48EAE5B782E
:105880006C2B7FF48AAE2046FFF7F6FD03460CE74B
:10589000642B51D17278742A4ED1B278002A4BD140
:1058A000E3681A78672A59D0732A02D15B78722B81
:1058B0004AD02046FFF7BCFAE3681A78492A064620
:1058C0007FF430AF0133E3602046FFF70DFD324631
:1058D000034604212046FEF703F9064622E7E36863
:1058E0001A785F2A7FF42CAF0133E360452120460C
:1058F00000F056F8034685E60133E3602046FFF7E3
:10590000F3FC2A46034604212046FEF7E9F8054643
:1059100047E71B78732B0AD0633BDBB20F2B3FF6B4
:10592000DDAE1E4A52F82330002B3FF4D7AE20469E
:10593000FEF728FD0746E4E6702B05D17378742B3B
:1059400002D1B378002BABD02046FFF795FD064679
:10595000E8E62046FFF790FD0746D2E65B78732B1A
:10596000A7D1F1E72046FFF7DFF90746C9E6204651
:10597000FFF7DAF98DE65A78692A7FF40EAE023322
:10598000E3604521204600F00BF803468DE6013325
:10599000E360002389E600BF010204008C310100AE
:1059A0002DE9F041C2680E46117882B00023B14261
:1059B0000446019324D0D0F8308001AD012709E0DE
:1059C000FEF78EF8286000F1100578B1E3681A78C8
:1059D000B2420FD027632046FFF74EFD0246002358
:1059E0002E212046C4F83080002AE9D1002002B0E0
:1059F000BDE8F08101980133E36002B0BDE8F081B9
:105A00000132C2602E211A4602B0BDE8F041FEF715
:105A100067B800BF2DE9F04F0F46C168B2F1000929
:105A200083B00A78044615BF4FF01E0A4FF01B0AD8
:105A30004FF01D084FF01A0814BF1C2619263D46CA
:105A40004FF0010B1BE0562A33D04B2A37D04B784E
:105A500053B38B1CE3604B78782B4FD06F2B34D132
:105A6000E36A0933E3625021002300222046FEF757
:105A700037F82860C0B1E1680A7800F10C050846E3
:105A8000FEF706FA00283FD04B1C722AE360DAD1F9
:105A9000E36A0933E3623146002300222046FEF721
:105AA0001FF828600028E6D10025284603B0BDE88D
:105AB000F08FE36A0933E36241460023D5E7E36AE6
:105AC0000633E36251460023CFE74F2B38D1E36A18
:105AD0000933E3622046236BC4F830B00193FFF72B
