:1000000000800020BD010000F1150000AD150000CA
:10001000AD150000AD150000AD150000AD150000D8
:10002000AD150000AD150000AD150000F115000084
:10003000F1150000AD150000552300005923000004
:10004000F1150000F1150000F1150000F115000098
:10005000F1150000F1150000F1150000F115000088
:10006000F1150000F1150000F1150000F115000078
:10007000F1150000F1150000F1150000F115000068
:10008000F1150000F1150000F1150000F115000058
:10009000F1150000F1150000F1150000F115000048
:1000A000F1150000F1150000F1150000F115000038
:1000B000F1150000F1150000F1150000F115000028
:1000C000F1150000F1150000F1150000F115000018
:1000D000F1150000F1150000F1150000F115000008
:1000E000F1150000F1150000F1150000F1150000F8
:1000F000F1150000F1150000F1150000F1150000E8
:10010000F1150000F1150000F1150000F1150000D7
:10011000F1150000F1150000F1150000F1150000C7
:10012000F1150000F1150000F1150000F1150000B7
:10013000F1150000F1150000F1150000F1150000A7
:10014000F1150000F1150000F1150000F115000097
:10015000F1150000F1150000F1150000F115000087
:10016000F115000021190000F1150000F115000043
:10017000F1150000F1150000F1150000F115000067
:10018000F1150000F1150000F1150000F115000057
:10019000F1150000F1150000F1150000F115000047
:1001A000F1150000F1150000F1150000F115000037
:1001B000F1150000F1150000F1150000574B4CF24D
:1001C000205210B5DA814DF62812DA8100BF00BF47
:1001D00001F012FA524B4FF010621A63514A9A63BF
:1001E000514ADA63514A136913F4807303D153619E
:1001F0004FF4A85313614E4B9A78110703D59A78A0
:1002000042F008029A704B4B4B482A221A704B4B13
:10021000DA1C121AC11E22F00302994288BF002282
:10022000474901F0EFF8474B4748DA1C121AC11E44
:1002300022F00302994288BF0022002102F07AF9DD
:10024000424943484FF4DE7201F0DCF8414B424A28
:10025000802103F8011B9342FBD14FF0E0233C4A7D
:10026000C3F8082D3D4B8A221A70A3F5805324222F
:100270005A70A0221A709A799207FCD59A79D406FE
:10028000FCD4374B9A7902F00C02082AFAD10522E5
:100290001A7143225A719A799006FCD5304A9379A3
:1002A0005906FCD51E4B4FF08171596405219964A4
:1002B00020211170917901F00C010C29FAD1294A01
:1002C0005A604FF0E023284A5A6100229A610722BF
:1002D0001A61264AC3F8202D62B601F0C9F9134B02
:1002E0005B69DA0705D5224801F0B6F9214B224AAD
:1002F000DA61224B1B785B0609D51E4C1E4BE26966
:100300009A4204D11A4801F0A7F90023E36101F0F1
:1003100079F902F07FF901F06DF8FEE70020054061
:1003200000800440823F04000100002B00D0034005
:1003300000D0074000E007402087FF1F108DFF1FFF
:10034000182C0000F092FF1F108DFF1F000000000E
:100350000082FF1F00E400E05FE400E00050064080
:1003600000400640C01005003F1901000000202099
:1003700038D9136900E00340A5C3945A00F0074040
:10038000FFFFFFFFFFFFFFFFFFFFFFFFFFFFFFFF7D
:10039000FFFFFFFFFFFFFFFFFFFFFFFFFFFFFFFF6D
:1003A000FFFFFFFFFFFFFFFFFFFFFFFFFFFFFFFF5D
:1003B000FFFFFFFFFFFFFFFFFFFFFFFFFFFFFFFF4D
:1003C000FFFFFFFFFFFFFFFFFFFFFFFFFFFFFFFF3D
:1003D000FFFFFFFFFFFFFFFFFFFFFFFFFFFFFFFF2D
:1003E000FFFFFFFFFFFFFFFFFFFFFFFFFFFFFFFF1D
:1003F000FFFFFFFFFFFFFFFFFFFFFFFFFFFFFFFF0D
:10040000FFFFFFFFFFFFFFFFFFFFFFFFDEF9FFFF23
:100410000548064B1B1AD90F01EBA301491002D066
:10042000034B03B118477047108DFF1F108DFF1F3E
:100430000000000008B5054B1BB105490548AFF3A6
:100440000080BDE80840FFF7E3BF00BF00000000E8
:10045000108DFF1F102C000040697047807C704792
:100460008174704700207047012070474FF4C870B6
:10047000704700BF10B501210446062001F070F955
:10048000024B23621022E26110BD00BFC0F00F409A
:1004900010B5034B0360044600F036FE204610BD45
:1004A000DC29000010B5054B0360044600F02CFE6B
:1004B0002046282101F0CEF8204610BDDC2900009E
:1004C00002682DE9F041536A0D460F498B420446FC
:1004D00010D1867CE37C33B15768616862692B4632
:1004E0002046B8472268936A084A934207D1A67407
:1004F000BDE8F0814169984722680646EAE731463F
:100500002046BDE8F04118475D040000610400008A
:1005100070B5044600F01EFE236816499A698A42A7
:100520001CD15A6A14498A421DD1A57CE27C2AB9A1
:100530009B6A124A93420CD1A57470BD5E686269D1
:10054000616800232046B04723680C4A9B6A9342A7
:10055000F2D029462046BDE87040184720460021C9
:10056000BDE8704010476169204690472368054602
:10057000DCE700BFC10400005D040000610400006E
:1005800070B501210D20184D01F0EAF801210D2070
:1005900001F0C0F82C68BFF35B8F14F001040DD09C
:1005A000124913480023102200F012FC1148FF23C7
:1005B0000370BDE87040012100F07CBD284601F0C9
:1005C0003BF80028ECD00A4E304600F09FFD0A4B65
:1005D0000A4A0B49B4843046336001F091FF284643
:1005E00001F032F8DCE700BF2C8DFF1F5C8DFF1F90
:1005F000308DFF1F948DFF1F182A00002087FF1FDA
:100600009104000070B54D4C84B0236802930299A8
:100610000D20C1F3402101F07DF82368484A03937F
:1006200003991368CB1AB3F57A7F01D204B070BD79
:10063000444C11602378032B59D8DFE803F045318F
:100640001E02414D00231021284601AAADF80430B6
:100650008DF8063000F004FE3C484FF6FF73017839
:100660002B80AB7000F008FC23780133DBB2082B41
:1006700088BF0423237004B070BD334D0026284684
:1006800001AA1021ADF804608DF8066000F0E8FDC5
:100690002E482E80FF230178AB7000F0EDFBE3E7DE
:1006A000294D0026284601AA1021ADF804608DF8D6
:1006B000066000F0D5FD2548AE704FF40043017888
:1006C0002B8000F0D9FBCFE71F4D0026284601AA5A
:1006D0001021ADF804608DF8066000F0C1FD1B48E4
:1006E000AE70FF2301782B8000F0C6FBBCE7164EEE
:1006F000174D002301AA10213046ADF804308DF8C3
:10070000063000F0ADFD2B7803F00F0101EB410145
:100710001B0101A831448DF80430FF238DF805300A
:100720008DF8063000F0AEFD0848017800F0A4FB1B
:100730002B78013303F00F032B7095E7B88EFF1F62
:100740008C8DFF1F908DFF1F5C8DFF1F948DFF1FF1
:10075000588DFF1F2DE9F0434FF0E024A64AD4F84E
:10076000FC1DA64B41F08071C4F8FC1D11680024EB
:1007700041F0010111605460D3F8C020D3F8C020CB
:1007800022F01002C3F8C020417B037C02685B1A90
:10079000DBB243735678844616B186FA53F6F6B246
:1007A0009CF8193003FB0666C6F3072672B6924B17
:1007B000DCF808105A68002902F15A0240F3DA8086
:1007C0008E4844F6786E9CF80C909CF80D809CF84E
:1007D0000E709CF80F509CF810409CF81110A5EB7F
:1007E0000905A4EB0804C91B8CF80C508CF80D40CB
:1007F0008CF80E1072B65968914204D95968891A5A
:10080000714500F2F580D0F8C040D0F8C05044F0F7
:10081000100425F01005072759689142FCD35A6847
:10082000C0F8C040310602F15A0200F1A8805968B0
:10083000511A4E29FBD87600013FC0F8C050F6B2DD
:10084000EAD159688A42FCD85A68C0F8C0403606D6
:1008500002F15A0200F19D805968511A4E29FBD8C5
:10086000DCF80060C0F8C050377827B19CF80C1055
:1008700087FA51F7FFB29CF8181001FB07774FF089
:100880000708C7F3072759689142FCD35A68C0F894
:10089000C040390602F15A0200F185805968511AA8
:1008A0004E29FBD87F00B8F10108C0F8C050FFB254
:1008B000E9D159688A42FCD85A68C0F8C0403F065E
:1008C00002F15A0279D45968511A4E29FBD8C0F85E
:1008D000C050B77827B19CF80E1087FA51F7FFB2D5
:1008E0009CF81A1001FB07774FF00708C7F307279A
:1008F00059689142FCD35A68C0F8C040390602F1E9
:100900005A0263D45968511A4E29FBD87F00B8F1B6
:100910000108C0F8C050FFB2EAD159688A42FCD839
:100920005A68C0F8C040390602F15A0257D45968D3
:10093000511A4E29FBD8C0F8C050DCF808109CF9B9
:10094000124001392644CCF80060CCF808107678C3
:1009500026B19CF80D1086FA51F6F6B29CF81910E3
:1009600001FB0666C6F3072662B6DCF8081000290C
:100970003FF729AF62B6204B5868BDE8F08359684D
:10098000511A21297FF657AF5968511A2129F6D8F3
:1009900051E75968511A21297FF662AF5968511AF7
:1009A0002129F6D85CE75968511A21297FF67AAFD8
:1009B0005968511A2129F6D874E75968511A212922
:1009C00085D95968511A2129F7D880E75968511AF1
:1009D00021299BD95968511A2129F7D896E75968D6
:1009E000511A2129A7D95968511A2129F7D8A2E704
:1009F00062B60020BDE8F083001000E000F00F4078
:100A000070B5044688B00D4600F0E6FEA38CC31A0C
:100A10009BB2B3F58C7FF7D32E46298A56F8183B44
:100A2000ADF8101096E80300EA6803920093AA7CE0
:100A300006900B0C8DF81E308DF812206B686A69D9
:100A4000ADF81C106846019302930592FFF782FEF1
:100A500020B100F0C1FEA08408B070BD62B64FF4B2
:100A6000D253013BFDD172B696E80300EB680393C5
:100A70002B8AADF810302B6800930B0C6A69069036
:100A8000ADF81C108DF81E30A97C6B688DF8121023
:100A90006846019302930592FFF75CFE00F09CFE0E
:100AA000A08408B070BD00BFF0B593B06F46154686
:100AB0000E461A4601460446384600F061FB02968F
:100AC0000395049597E803000A0C8DF82E200AAED2
:100AD0000A90ADF82C1096E80300A37C08900A0C4D
:100AE000012BADF824108DF826205BD00023059350
:100AF000ADF81830236848491A6B00238A428DF8F4
:100B00001A30079340F0838000F066FEA38CC31A6E
:100B10009BB2B3F58C7FF7D308AD95E80300059B36
:100B20000D930B0C8DF84630039B9DF81A200B9308
:100B30000C93BDF8183010908DF83A20ADF838308D
:100B4000079A029BADF8441030460F920A93FFF7C4
:100B500001FE20B100F040FEA08413B0F0BD62B6EB
:100B60004FF4D253013BFDD172B6059A0D9295E830
:100B70000300BDF81820ADF83820029A0A929DF8BB
:100B80001A20039B10900D0C8DF83A203046079ADE
:100B90008DF84650ADF844100B930C930F92FFF76D
:100BA000D9FDD7E71D4A1378013303F00703D901B4
:100BB0001370C9B29A0748BF41F040015B0748BFB4
:100BC00041F020019DF82020103105ABC9B20DF194
:100BD00017074FF4807CBAB1BCFBF2F2D2B2501CC2
:100BE000C0B200FB0115C5F3072E2D1218BF0EF180
:100BF000FF35D8701D7000B1DA7001339F423FF4A9
:100C000079AF1A7B002AE7D1DA701A70F5E702A9EA
:100C10002046904713B0F0BD010A0000288DFF1F49
:100C20002DE9F04192B06F4615460E460446014646
:100C30001A46384600F0A4FA85EAE573A3EBE5739B
:100C400002960393049397E803000B0C8DF82E3063
:100C50000AAE0A90ADF82C1096E803000B0C8DF844
:100C60002630A37C0890012BADF8241061D000231E
:100C70000593ADF8183023684B4A1B6B0021002DFB
:100C80000791B4BF6FF00201032193428DF81A104F
:100C900040F0848000F0A0FDA38CC31A9BB2B3F592
:100CA0008C7FF7D308AD95E80300059B0D930B0CE3
:100CB0008DF84630039B9DF81A200B930C93BDF8DA
:100CC000183010908DF83A20ADF83830079A029B12
:100CD000ADF8441030460F920A93FFF73BFD28B160
:100CE00000F07AFDA08412B0BDE8F08162B64FF446
:100CF000D253013BFDD172B6059A0D9295E80300DF
:100D0000BDF81820ADF83820029A0A929DF81A20F2
:100D1000039B10900D0C8DF83A203046079A8DF801
:100D20004650ADF844100B930C930F92FFF712FD51
:100D3000D6E71E4A1378013303F00703D901137075
:100D4000C9B29A0748BF41F040015B0748BF41F074
:100D500020019DF82020103105ABC9B20DF1170C10
:100D60004FF4807EBAB1BEFBF2F2D2B2501CC0B2D8
:100D700000FB0117C7F307283F1218BF08F1FF3720
:100D8000D8701F7000B1DA7001339C453FF473AF27
:100D90001A7B002AE7D1DA701A70F5E702A920461B
:100DA000984712B0BDE8F081010A0000288DFF1FAE
:100DB000054B002203F130011A705A709A70033308
:100DC0008B42F9D1704700BF5C8DFF1F0020704738
:100DD000002B70B504460E46154603DD02EB4205B6
:100DE0002E441D46236820461B69984723680B4AFA
:100DF000DB6A66609342656101D1204670BD204682
:100E000098470028F9D00649064A4B68B2FBF0F033
:100E1000834238BF03464B60204670BD6504000026
:100E2000948DFF1F40420F0070B4104A1468631C79
:100E30008C4283B0136016DB0D4C21680091009941
:100E4000246801940B4C019D26682560891B0129AB
:100E50004FF47A7C38BF01210CFB03F3B3FBF1F3B1
:100E600000214380116003B070BC7047B08EFF1F3B
:100E7000B88EFF1FB48EFF1F2DE9F04F43683C4C26
:100E800083B00646884633B100F0A6FC226873683A
:100E9000801A9842F7D300F09FFCF36820601BB1E2
:100EA0004046B16898478046324B1C68002C33D0CE
:100EB000314DDFF8C890DFF8C8B005F580774FF006
:100EC000000A0EE05A4561691AD1A07C728845F883
:100ED000040B632A98BF84F812A0A4689CB1BD4299
:100EE00011D0E07C0028F1D02268D169526A4945CE
:100EF000E8D0019220468847019A5A450146E4D03D
:100F000020469047E2E71B4B1C68402524B1E37C58
:100F100033BB013DA468F9D1164B1C68CCB1164D0A
:100F2000DFF8608005F5807705E0A174A4680435DA
:100F30007CB1AF420DD0E37C002BF7D02368296849
:100F40009B6A4345F1D020469847A4680435002C9D
:100F5000EFD11921304603B0BDE8F04FFFF764BF71
:100F6000236862695F68616820464346B847D0E7F6
:100F7000A48EFF1FA88EFF1FA48DFF1F5904000021
:100F80005D040000610400002DE9F04F4368434C0C
:100F900083B007468946904633B100F01DFC2268B5
:100FA0007B68801A9842F7D300F016FCFB6820603B
:100FB0001BB14046B96898478046394B1D68002DE3
:100FC0005FD0384CDFF8E0A0DFF8E0B000260AE0A0
:100FD0005A45696916D1A87C44F8040BAD680136FE
:100FE000C5B1402E54D0E87C0028F5D02A68D169DC
:100FF000526A5145ECD0019228468847019A5A45D9
:101000000146E8D02846904744F8040BAD68013605
:10101000002DE6D1224B1C68002C32D0402E02D18C
:1010200015E0A46884B17B88632BE37C98BFA5742A
:10103000002BF6D0236862691E6820464346494665
:10104000B047A468002CEED1154B1C68CCB1154DEF
:10105000DFF85C8005F5807605E0A174A4680435AE
:101060007CB1B5420DD0E37C002BF7D02368296812
:101070009B6A4345F1D020469847A4680435002C6C
:10108000EFD11921384603B0BDE8F04FFFF7CCBED1
:10109000034B1C68002CF4D0D9E700BFA48EFF1FBF
:1010A000A88EFF1FA48DFF1F590400005D040000DF
:1010B0006104000010B582B061B90B4B1C683CB1F3
:1010C00020464FF0FF3100F045F8A468002CF7D11E
:1010D00002B010BD002201A9ADF804208DF8062051
:1010E000FFF752FFE9E700BFA88EFF1F044B002265
:1010F000FF204FF0FF31C3E900029960DA607047CA
:10110000948DFF1F01207047704700BF10B40D4A37
:101110000D4C04604FF0FF34C460116804F1817419
:1011200000230461094C436083604361846131B1F1
:10113000074B1A6802B1906010BC186070471060CD
:10114000F6E700BFA88EFF1F542A000070170300A7
:10115000AC8EFF1F0346406880B1002908DB5B6945
:101160009942A8BF194601EB4102002101F0E2B902
:10117000596901EB4102002101F0DCB9704700BF61
:101180002DE9F041164601F10F0401F10C0784B07E
:10119000054622463946304600F036F8C0F30723AC
:1011A0008DF80D30C0F307438DF80C008DF80E302C
:1011B000039BADF808304FF003081B0C424602A910
:1011C00028468DF80A3000F01DF922463946FF20E6
:1011D00000F01AF8C0F30722C0F307438DF80800A7
:1011E0008DF809208DF80A30029BADF80430190CF7
:1011F00042468DF80610A81801A900F003F9284608
:10120000AE7104B0BDE8F08110B582B00023ADF836
:1012100000308DF80230A0B10139EC4602F1030E26
:1012200011F8013F43B1147803FB000324B104FB20
:1012300003331B0C8CF80030013272450CF1010CA9
:10124000EED1009B0020DAB262F30700C3F307225D
:1012500062F30F20C3F3074363F3174002B010BDDE
:1012600070B50D1E0CDD05EB45051646044605441C
:10127000032220463146144400F0C4F8AC42F7D1B2
:1012800070BD00BF70B5037846788278DC0004F04A
:10129000F80404EB840C0CEB0C1C0CEB0405180696
:1012A000C5F3072558D413F0400E44D19B067DD5D5
:1012B00055355FFA85FCAB23FF2E1DD0002E00F0C4
:1012C0009480F043C0B210FB00F0000AC443E4B2C3
:1012D00013FB04F30130C0B21B0A1CFB04FC4FEAF1
:1012E0001C2C1EFB04F4240A034484440444DBB293
:1012F0005FFA8CFC5FFA84FEFF2A16D012FB02F024
:10130000003A18BF012202EB102212F0FF0263D054
:101310000132D2B213FB02F31B0A1CFB02FC4FEAA0
:101320001C2C1EFB02F24FEA122E0B7081F801C03A
:1013300081F802E070BD13F0200E2ED104EBC4033F
:1013400004EB430303EBC3031B12563DC3F1AB0392
:101350005FFA85FCDBB2AFE713F0400C12D113F05B
:10136000200333D104EBC40004EB400404EBC404B9
:10137000C4F30724C4F1AB0C55345FFA8CFC5FFA5C
:1013800084FE99E713F0200C14D105F15503DBB26C
:10139000C5F1AB055FFA85FE8EE74FF000036FEAFB
:1013A000050C5FFA8CFCAE46002385E7EB43DBB20D
:1013B000AC4681E7A5F15603DBB24FF00000C5F162
:1013C00055055FFA85FE4FF0000C75E76FEA050ED4
:1013D0005FFA8EFE2B466FE79646944613460B70D7
:1013E00081F801C081F802E070BD4FF0FF0EF446B5
:1013F000734681E708B5FFF7C3F8FFF703F900F07C
:101400000FFFFAE701B441EA000313F003036FD1C1
:10141000403A41D351F8043B40F8043B51F8043BB7
:1014200040F8043B51F8043B40F8043B51F8043BBE
:1014300040F8043B51F8043B40F8043B51F8043BAE
:1014400040F8043B51F8043B40F8043B51F8043B9E
:1014500040F8043B51F8043B40F8043B51F8043B8E
:1014600040F8043B51F8043B40F8043B51F8043B7E
:1014700040F8043B51F8043B40F8043B51F8043B6E
:1014800040F8043B51F8043B40F8043B51F8043B5E
:1014900040F8043B403ABDD2303211D351F8043BFE
:1014A00040F8043B51F8043B40F8043B51F8043B3E
:1014B00040F8043B51F8043B40F8043B103AEDD2AD
:1014C0000C3205D351F8043B40F8043B043AF9D2FE
:1014D00004320AD0D2071CBF11F8013B00F8013BCF
:1014E00003D30B7803704B78437001BC704700BF87
:1014F0000C2A4AD310F0030311D0C3F10403D21A0B
:10150000DB071CBF11F8013B00F8013B07D311F8C2
:10151000013B00F8013B11F8013B00F8013B11F0E1
:1015200003033FF475AF30B4043AC91AC3F1040C95
:1015300051F8044B022B19D0032B0BD0240A51F87D
:10154000043B1D0644EA050440F8044B1C46043ADB
:10155000F4D216E0240E51F8043B1D0244EA0504BF
:1015600040F8044B1C46043AF4D20AE0240C51F82B
:10157000043B1D0444EA050440F8044B1C46043AAD
:10158000F4D20432B1EB0C0130BC043AA0D3013ADE
:1015900011F8013B00F8013BF9D20B7803704B784E
:1015A00043708B78837001BC704700BF08B50F4C47
:1015B000636B58030DD4636B59050FD4636B1A0525
:1015C00011D4636BDB04F3D500F012F8636B58039E
:1015D000F1D500F0A5F9636B5905EFD500F008F8D7
:1015E000636B1A05EDD500F003F8EAE700800440CC
:1015F00008B5FFF7DBFF00BF014B10221A807047D0
:1016000000200540704700BF094A08B5034610682E
:1016100033B169460344A1F580518B4201D2136076
:1016200008BD00F0F1FF0C2303604FF0FF3008BD50
:101630002487FF1FFEE700BFD0E9003213430CBF31
:1016400001200020704700BF01220023C0E90023D1
:10165000704700BF00F05ABF034B002210215A61AF
:101660005A6018605961704700D00340704700BF4E
:10167000F0B54FF0E0244FF400054FF0807CC4F843
:101680000851C4F808C14FF0007CC4F808C11D4AD5
:101690001D481E494FF0806CC4F808C1282300275C
:1016A00048F6FF7609254FF0006CC4F808C183B0F6
:1016B00057609660D3605361D3615362D3625363C2
:1016C000D3635364156047608660C36043610560FF
:1016D0004F608E60CB604B610D6000F045FEFFF700
:1016E000C5FF0B4C23680093009B132BFAD900F025
:1016F000D1FC23680193019BB3F5967FF9D303B026
:10170000F0BD00BF008003400090034000800B400C
:10171000B88EFF1F212816D810B4104B53F8302074
:1017200092F880422CB1012371B982F8003110BCCB
:10173000704703EBC0035B681A6849B142F00302CB
:1017400010BC1A607047704782F8803010BC704738
:1017500022F0020210BC1A60704700BF842A000009
:10176000212820D81B4A02EBC00301295B680FD057
:1017700004291DD052F83000002280F8802299B14F
:10178000022922D003290DD14FF481721A607047CB
:1017900052F830004FF4A27280F880121A601A6872
:1017A00022F020021A6070474FF480721A6070476E
:1017B00052F830104FF4A272012081F880021A60B2
:1017C0001A6842F020021A60704740F203121A6051
:1017D000704700BF842A000072B60D494FF0E02226
:1017E00093690868D2F8042D62B6520102D5322BF3
:1017F00088BF0130074AC3F58C334FF47A7103F286
:101800003F13A2FB032301FB00F000EB1310704712
:10181000B88EFF1F398EE33810B472B6194A1A4CCD
:10182000042312F8011B090743F0010C05D554F8F5
:10183000331061B154F83C10B9B10433142BF0D11A
:1018400062B6124B00221A7010BC00F087BC0F4920
:1018500004EBC302083050600A780D4844F83300A6
:10186000013A0A7062B610BC7047084A094904EB95
:10187000CC0308305860137844F83C10013B1370D7
:1018800062B6F0E7EC2B00000080FF1FA48FFF1F63
:1018900088004000C8004000421E032A0ED81C4B9E
:1018A000400140F0100010B4034472B6194CA05C23
:1018B00003281CD8DFE800F0131503187047052033
:1018C000A05413F0080F088814BFC82288220831DA
:1018D00042EA004259601A6062B610BC70470320A9
:1018E000EEE708330220EBE708330420E8E70A4B71
:1018F00053F8220038B1094B53F82200416043F8F5
:10190000221062B6E9E743F82210044BF7E700BF64
:101910000080FF1F948FFF1F748FFF1F848FFF1F96
:101920002DE9F04FDFF8CCA2DFF8CCB285B03DE076
:10193000B24D9E0805EBC607013A796813F008031B
:10194000D4B2A1F1080040F0B88055F836204FEA33
:10195000124C120C21F808CC00F0A78021F8063CAC
:1019600041F8043CA64B53F82420002A00F00182E1
:10197000A44B53F82420506043F82400A24B33F8C2
:101980001420944423F814C000F0C8FB002800F091
:10199000E98117F0080F9D4B00F1080018BF5B4666
:1019A000786045F8363008238AF880309AF880301D
:1019B0005907DCB21BD5964B1B78ABB195490A7819
:1019C00002F0FF032AB1013BDBB20B70002B00F0E9
:1019D000468391490A7802F0FF032AB1013BDBB24A
:1019E0000B70002B00F0EB8104238AF8803014F098
:1019F000080200F0CC819AF89020D3B2120997D156
:101A0000DFF8F8919B0809EBC30459F833006468C8
:101A1000C0F3830009287CD00FD80138012808D8EA
:101A20007E4A158842F22100854200F0FB8149F888
:101A300033B001238AF89430B5E70D28F9D1D4E901
:101A40000007774D49F833B0744E764CC9F8102032
:101A500083B240F2816CC9F818202A6063454FF0C8
:101A60000102C6E90007227000F2FF80B3F5D06FD3
:101A700080F0CB82B3F5817F00F0268240F2DE80D9
:101A800040F2023293427BD107F07F07042F00F22D
:101A90000881020C40F00581634911F8273043F0BA
:101AA000020301F82730134670E017F0080F574B78
:101AB00018BF5B4645F8363075E700F04FFB5B49D1
:101AC0005B4A51F82430002B00F05781586841F8E8
:101AD0002400115D03F108007860032905D8DFE8D0
:101AE00001F0120F1502042111551A8817F0080F82
:101AF00014BFC823882343EA024345F8363052E72F
:101B000002211155F1E703211155EEE70521115589
:101B1000EBE7434D2A683AB34649424C0F884648A2
:101B200094F800E00678402F3B4628BF4023BEF1E2
:101B3000000F8EF0010E84F800E046F0020486F0FB
:101B40000106067009EBC400426014BFC82088205B
:101B500040EA03401A44FB1A9BB249F834000B8058
:101B6000002B00F036812A602C4B1A88B2F5A06F4A
:101B70007FF45FAF9A788AF8982000225A7058E76D
:101B8000B3F5A06F40F08D8000221346B6F806C072
:101B90002948944528BF944667460278402F28BFBD
:101BA000402742F0020E3E0409EBCE0846F0C8067C
:101BB000C8F8043049F83E6000263B442670BCEB70
:101BC000070782F00106067040F01181BCF13F0F5B
:101BD0004FF0010509D946F00206027009EBC60272
:101BE00025705360882349F8363001238AF89430F1
:101BF0001FE700BF00200740C80040000080FF1F13
:101C00004C8FFF1F5C8FFF1F9C8FFF1F88004000C1
:101C1000988FFF1F998FFF1FC48FFF1F6C8FFF1FAF
:101C2000408FFF1F3D8FFF1FC0200740748FFF1F95
:101C3000948FFF1F3E8FFF1F3C8FFF1F802B00F0F4
:101C40008B81822B2DD107F07F07042F29D8A74A3B
:101C500000231380A64B13F827309F0740F1FC8127
:101C600001231370A14B022290E742F2210C63453D
:101C7000BBD01DD942F2212293420DD1BFB2002F19
:101C800082D19C4B1A689C4B1A609C4BC0F3074056
:101C900000221870134679E742F2213293423FF452
:101CA00073AF0F238AF8C03001238AF89430C0E65E
:101CB000B3F5086F00F04A81B3F5106FF1D1904B86
:101CC000C0F307400425187059F835301A0606D4B9
:101CD0000135142D0CD059F835301A06F8D509EB1A
:101CE000C50301355868083800F038FA142DF2D1D0
:101CF000844A854B0292854A0192854E854ADFF8D7
:101D000018820394009200251C4656F8047B2FB1DC
:101D100038467F6800F022FA002FF9D1009BD8F8EE
:101D2000007043F8045B46F8045C00932FB138461A
:101D30007F6800F013FA002FF9D1029B48F8045B8A
:101D400043F8045B0293019B23F8025B0193237821
:101D5000023B032B00F20981DFE813F03F0104018D
:101D60003F0104016D4A45F83600137801331370C2
:101D700019E643F82400674BFEE5115D022926D0E1
:101D80007FF611AE03291DD1012313550BE6E007A1
:101D90006ED4210621D4A20708D5614B93F8882080
:101DA0000221D2B283F8882083F88010E30603D59D
:101DB0005B4B102283F8802005B0BDE8F08F00F067
:101DC0000BFA11E617F0080F14BF03230223135573
:101DD000E9E53F2F98BF0022C5E6514B80220D2137
:101DE00083F8C01083F88020A207DFD5D5E746F03E
:101DF00002060270402F09EBC6003A4628BF402277
:101E000043601004134440F088000121BA1A49F8D5
:101E10003600217055D02B60424B1A8001238AF87E
:101E2000943006E692885AB93F4AE51D14F8011B22
:101E300002F8011FAC42F9D13C4A1268862A3CD014
:101E40003B4C3C4825780278002D85F00105257033
:101E500042F0020482F00102027009EBC4024FF06A
:101E60000000506014BFC822882249F83420DEE503
:101E70002B4B30483049314C022583F89450027086
:101E80002F480C602F4D48608C600D24CD60FF20E2
:101E90000A618A6183F8C04001219F2483F8880089
:101EA00083F8800083F8982083F88C0083F88440BE
:101EB00083F8941005B0BDE8F08F234A0F2010700E
:101EC000BEE73F2FA7D890E607F07F07042F3FF625
:101ED000E8AE000C7FF4E5AE054A12F8273023F097
:101EE000020302F82730002213464FE6448FFF1FFB
:101EF000C0200740B88EFF1FC08FFF1FBC8FFF1F81
:101F0000988FFF1F848FFF1F948FFF1F9C8FFF1FD1
:101F10004C8FFF1F5C8FFF1F748FFF1FA48FFF1F4D
:101F2000002007403E8FFF1FB38FFF1FB48FFF1F9E
:101F30003D8FFF1F3C8FFF1F0080FF1F8800400068
:101F4000BC8EFF1FFC8EFF1F998FFF1F484B494916
:101F50001B780B700B4619E6464A00231380454B4D
:101F6000022213E64FF001032370434BB34204F106
:101F700001047FF4CAAE414E039CDFF80481414F57
:101F800000233370042518F8013B3F4AAB541B076C
:101F900025D445F0020145F0030204350023142D39
:101FA00049F8313049F83230EDD1384F25783A7858
:101FB00042F0020009EBC00C85F00106CCF80430B9
:101FC000002D4DD1882382F0010226703A7049F825
:101FD000303001238AF894302BE52570C5E700F0F6
:101FE0009DF8002832D009EBC5030830586049F845
:101FF000357000F093F808B345F0010309EBC30214
:102000000830506049F833B0C3E7214A5368002BC9
:102010003FF447AE000CBFB204E013690C32002B52
:102020003FF43FAE11888142F7D15188B942F4D1D3
:10203000000A03280CBF1A781289A7E53378013308
:10204000337045F0010349F83300A2E7337849F8CB
:10205000350001333370CCE7064B022296E500BE13
:102060002670C82382F001063E7049F83030BCE586
:10207000988FFF1F448FFF1F5C8FFF1FA48FFF1FD0
:10208000EC2B000088004000C02007403C8FFF1F61
:10209000982B000070B500F0CDF900231A4A1946BC
:1020A00042F8331002EBC3000133142B4160F7D127
:1020B000164C174B606B174D40F480206063C2F3E1
:1020C000072483F89C40144CFF204FF0010CC2F30E
:1020D0000746120E83F8B0604FF0E02E83F8B4206C
:1020E00083F8800083F88800187483F894C0217006
:1020F00083F884C0702385F849304FF400721023B0
:10210000CEF80821237270BD0080FF1F00800440BC
:102110000020074000E400E00021074072B60D49AE
:102120000B68B3FA83F00B2810DC4FF00042C2407A
:1021300023EA02030B6062B6074A00EBC000C1004D
:1021400002EBC000002353504360704762B600208A
:10215000704700BF2887FF1FBC83FF1F0E4BC31AA9
:10216000B3F5587F10D20D4A127872B972B60C4A84
:102170000C49A2FB032308684FF000421B0922FA16
:1021800003F303430B6062B67047074A1278002AD4
:10219000ECD0FFF741BB00BFBC83FF1FA48FFF1F24
:1021A000398EE3382887FF1F988FFF1F084B094A95
:1021B0001B6810B594881BB11A885B88D31A1C441D
:1021C0000CB1204610BD00F02BF8204610BD00BF1A
:1021D000A88FFF1F9C8FFF1F38B50E4B1B7853B97C
:1021E0000D4C216841B103F0FF054B880B800420A2
:1021F000FFF752FB256038BDFFF790FF014620B185
:10220000BDE838400420FFF747BB044B01221A7099
:1022100038BD00BFAC8FFF1FB08FFF1FC48FFF1FE3
:102220002DE9F843324E337863B1324F3A784AB9E8
:102230000122D9073A7043D49A0726D400225B07BB
:102240003A7001D4BDE8F8832B4B1A68002AF9D004
:10225000EFF30582002AF5D1EFF3108572B6186806
:1022600000283AD0254C2178002936D142691A60DD
:1022700001232370002A37D0916105B962B6002589
:102280008368457798472570DCE7DFF8748098F815
:102290000020002AD2D00025DFF868902B4659F89C
:1022A0002340236820461B690135984708B12369FC
:1022B000984798F80020EBB29A42F0D83378BDE7FF
:1022C000FFF774FF68B9104B1B780BB93378B3E78D
:1022D000337803F0FE033370AEE7002DB2D162B65F
:1022E000B0E700F0A5F8EEE7084B1A60C5E700BFBD
:1022F0002C87FF1FC58FFF1FC88FFF1FD48FFF1FA5
:10230000E88FFF1FDC8FFF1F942B0000D88FFF1F6B
:1023100070B5EFF3108272B60C4C206880B10C4E91
:1023200000254369236073B19D6102B962B6836879
:1023300045779847EFF3108272B620680028F0D1F5
:1023400002B962B670BD3360EFE700BFD08FFF1FE8
:10235000CC8FFF1FFFF7DCBF024A13680133136005
:10236000704700BFB88EFF1F2A4B2B4A6020E12127
:102370001870597013782948082B34D00A2B20D0B4
:102380000C2B274B0CBF15213D2112228160C2600E
:102390009960DA60234B21491B78214ACBB1012394
:1023A0000B621362204B1D491B781D4A012B13D968
:1023B000042B1BD884234B6253621C4B01221A70DE
:1023C0007047174B192113228160C2609960DA604F
:1023D000E0E70B621362E5E780234B625362134B25
:1023E00001221A7070470E4B0121ECE7082B06D82A
:1023F00085234B6253620D4B01221A707047102BDC
:1024000094BF862387234B625362084B01221A70C4
:10241000704700BF004007402D87FF1F00B00340FA
:1024200000B00B40E98FFF1F2E87FF1FEA8FFF1FB1
:10243000704700BF10B584B072B6174A70244120AF
:102440000F2180231470D0719171137013781B06C3
:10245000FCD5906862B6114B114C984238BF00EB26
:10246000800001A938BF40000A2200F01BF801A932
:102470002046002311F8012B01333AB10A2B20F832
:10248000022FF7D11623237004B010BD5B00DBB21E
:10249000237004B010BD00BF000002408096980079
:1024A000BC87FF1F01F1FF3C70B56546002401E0C9
:1024B00070460134B0FBF2FE02FB1E03092B03F150
:1024C00030068ABF3733F3B2DBB2904205F8013FE2
:1024D000EED2631C0022CA54C8187CB162461CF8B4
:1024E000015F10F801ED8CF800E0A1EB0C03023263
:1024F000013B521A23449A420570EFDB084670BD37
:1025000003460846194600F067B800BF024B014673
:10251000186800F045B900BF088DFF1F014800F0A2
:102520009DB800BF5491FF1F014800F099B800BF4B
:102530005491FF1F830730B548D0541E002A3FD066
:10254000CAB2034601E0013C3AD303F8012B9D07D0
:10255000F9D1032C2DD9CDB245EA05250F2C45EA3A
:10256000054536D9A4F1100222F00F0C03F1200E1C
:10257000E6444FEA121C03F1100242E9045542E915
:10258000025510327245F8D10CF1010214F00C0F13
:1025900003EB021204F00F0C13D0ACF1040323F090
:1025A00003030433134442F8045B9342FBD10CF061
:1025B00003042CB1C9B21C4403F8011B9C42FBD19B
:1025C00030BD64461346002CF4D1F9E703461446A7
:1025D000BFE71A46A446E0E713460A460146022032
:1025E00000F040B838B5074D0022044608462A607E
:1025F000FFF70AF8431C00D038BD2B68002BFBD036
:10260000236038BDEC92FF1F014B1868704700BF74
:10261000088DFF1F70B50D4E0D4D761BB61006D000
:10262000002455F8043B01349847A642F9D1094EDD
:10263000094D761B00F0DCFAB61006D0002455F8E0
:10264000043B01349847A642F9D170BDFC2B000031
:10265000FC2B00000C2C0000FC2B0000704700BF7E
:10266000704700BF2DE9F047DFF874A00646DAF89E
:10267000000098460F469146FFF7F0FF194B1C6883
:1026800024B365681F2D24DC5EB96B1C0235DAF8B3
:102690000000636044F82570FFF7E2FF0020BDE80A
:1026A000F08704EB85010123C1F88890D4F88821D4
:1026B000AB401A43022EC4F88821C1F80881E4D146
:1026C000D4F88C211A43C4F88C21DEE7064C1C6038
:1026D000D7E7DAF80000FFF7C3FF4FF0FF30DEE77F
:1026E0000C8DFF1FE892FF1F5891FF1F024B13B183
:1026F0000248FEF76BBB704700000000AD290000E8
:10270000F8B5244F0C460646FFF708FFBB685D6826
:10271000C4F57E610F3125F003054B1923F47F6367
:1027200023F00F03A3F58054B4F5805F07DB00218D
:102730003046FFF757FFBB682B44984204D0304621
:10274000FFF7F2FE0020F8BD61423046FFF74AFF76
:1027500001300DD0104ABB682D1B45F001055D60AE
:10276000136830461B1B1360FFF7DEFE0120F8BD27
:1027700000213046FFF736FFBA68831A0F2BDEDDE3
:1027800043F001035360054B03491B68C01A0860FE
:10279000D5E700BFD487FF1FEC8FFF1FDC8BFF1F27
:1027A000002961D0F8B50C460646FFF7B7FE54F88D
:1027B000042C7B4FA4F1080522F0010105EB010C6C
:1027C000B868DCF80430604523F0030300F08B8028
:1027D000D207CCF8043032D454F8082CAD1A114486
:1027E000AA6807F1080082426AD00CEB0304D4F80F
:1027F00004E0EC68D4601EF0010FA26000F0978046
:1028000041F001036B60CCF80010B1F5007F35D2C8
:102810007868CB080122490901338A40024357F8FE
:1028200033107A6007EBC302083AC5E9021247F891
:102830003350CD603046BDE8F840FFF775BE0CEB75
:1028400003025268D00710D4194407F10800DCF8DD
:102850000830834273D0DCF80C20DA60936041F0DA
:1028600001036B606950D0E7704741F00103B1F597
:10287000007F44F8043CCCF80010C9D3B1F5206FB8
:102880004FEA512348D28B0903F1390003F1380292
:10289000C300F818FB580838984259D05A6822F0FB
:1028A00003028A4202D99B689842F7D1D868C5E9E9
:1028B00002308560DD603046BDE8F840FFF734BE89
:1028C0000CEB03025268D20763D40B44DCE902121A
:1028D000CA60916043F001026A603046EB50BDE887
:1028E000F840FFF721BE0B44D10707D454F8082C59
:1028F000AD1A1344D5E90212CA60916043F0010297
:102900006A60284ABD6012689A4293D8264B3046C6
:102910001968FFF7F5FE8DE7142B0AD9542B1FD841
:102920000B0B03F16F0003F16E02C300B1E7194412
:102930008DE703F15C0003F15B02C300A9E741F0FE
:102940000103C7E90455C5E902006B60695071E7EE
:1029500079689210012404FA02F20A437A60A6E729
:10296000B3F5AA7F06D8CB0B03F1780003F1770209
:10297000C3008EE740F25452934206D88B0C03F109
:102980007D0003F17C02C30083E74FF47E737E2257
:102990007FE741F001036B60CCF800104AE700BF0D
:1029A000D487FF1FE08BFF1F1490FF1F38B5074D22
:1029B000074C2C1BA41005D0013C55F8043D98474A
:1029C000002CF9D1BDE8384000F020B9000000002B
:1029D000000000000000000000000000A90A000044
:1029E000210C00000000000000000000351600006F
:1029F00011050000C1040000590400006904000032
:102A00005D0400006104000065040000351600004C
:102A10000000000000000000A90A0000210C0000D6
:102A200091040000A50400007504000011050000D9
:102A3000C104000059040000690400005D040000A6
:102A4000610400006D040000010A000000000000A5
:102A500000000000351600003516000000000000E0
:102A6000000000003516000011050000C104000040
:102A700059040000051100005D040000610400001D
:102A8000650400004008FE4340A004404408FE43A3
:102A900044A004400018FE4300C004403000FE4340
:102AA000309004403400FE43349004401C18FE4330
:102AB0001CC004401018FE4310C004400818FE4318
:102AC00008C004400C18FE430CC004400C10FE4328
:102AD0000CB004401010FE4310B004401810FE4328
:102AE00018B004401C10FE431CB004401410FE43F8
:102AF00014B004400418FE4304C004400010FE4318
:102B000000B004400008FE4300A004400408FE4357
:102B100004A004400C08FE430CA004400808FE4337
:102B200008A004401418FE4314C004401818FE43C3
:102B300018C004400410FE4304B004400810FE43D3
:102B400008B004401400FE43149004404C08FE43B7
:102B50004CA004400420FE4304D004402410FE4353
:102B600024B004402010FE4320B004402810FE434F
:102B700028B004402C10FE432CB004400020FE433B
:102B800000D004404808FE4348A004401000FE4323
:102B90001090044000FFFFFF000100007487FF1F3A
:102BA00012000000000200003087FF1F43000000F9
:102BB000000300008887FF1F0000000001030904D4
:102BC0008C87FF1F0000000002030904A487FF1F79
:102BD0000000000003030904BC87FF1F0000000081
:102BE00000000000000000000000000000151915A2
:102BF000F8B500BFF8BC08BC9E467047ED26000043
:0C2C000035040000B10D0000ED100000D4
:042C0C00F8B500BF58
:082C1000F0F8FF7F0100000055
:102C180000000000F092FF1FFFFFFFFF010A040001
:102C280009024300020100C0320904000001020247
:102C380001000524001001052401010104240206F5
:102C4800052406000107058203100040090401005D
:102C5800020A00000007050302400000070584027D
:102C6800400000001201100102000040C016830459
:102C7800750201020301000004030904180354004B
:102C8800650065006E0073007900640075006900D6
:102C98006E006F00160355005300420020005300D9
:102CA80065007200690061006C0000000C03000000
:102CB800000000000000000000000000000000000C
:102CC800000000000000000000000000D487FF1F83
:102CD800D487FF1FDC87FF1FDC87FF1FE487FF1FE8
:102CE800E487FF1FEC87FF1FEC87FF1FF487FF1F98
:102CF800F487FF1FFC87FF1FFC87FF1F0488FF1F47
:102D08000488FF1F0C88FF1F0C88FF1F1488FF1FF3
:102D18001488FF1F1C88FF1F1C88FF1F2488FF1FA3
:102D28002488FF1F2C88FF1F2C88FF1F3488FF1F53
:102D38003488FF1F3C88FF1F3C88FF1F4488FF1F03
:102D48004488FF1F4C88FF1F4C88FF1F5488FF1FB3
:102D58005488FF1F5C88FF1F5C88FF1F6488FF1F63
:102D68006488FF1F6C88FF1F6C88FF1F7488FF1F13
:102D78007488FF1F7C88FF1F7C88FF1F8488FF1FC3
:102D88008488FF1F8C88FF1F8C88FF1F9488FF1F73
:102D98009488FF1F9C88FF1F9C88FF1FA488FF1F23
:102DA800A488FF1FAC88FF1FAC88FF1FB488FF1FD3
:102DB800B488FF1FBC88FF1FBC88FF1FC488FF1F83
:102DC800C488FF1FCC88FF1FCC88FF1FD488FF1F33
:102DD800D488FF1FDC88FF1FDC88FF1FE488FF1FE3
:102DE800E488FF1FEC88FF1FEC88FF1FF488FF1F93
:102DF800F488FF1FFC88FF1FFC88FF1F0489FF1F42
:102E08000489FF1F0C89FF1F0C89FF1F1489FF1FEE
:102E18001489FF1F1C89FF1F1C89FF1F2489FF1F9E
:102E28002489FF1F2C89FF1F2C89FF1F3489FF1F4E
:102E38003489FF1F3C89FF1F3C89FF1F4489FF1FFE
:102E48004489FF1F4C89FF1F4C89FF1F5489FF1FAE
:102E58005489FF1F5C89FF1F5C89FF1F6489FF1F5E
:102E68006489FF1F6C89FF1F6C89FF1F7489FF1F0E
:102E78007489FF1F7C89FF1F7C89FF1F8489FF1FBE
:102E88008489FF1F8C89FF1F8C89FF1F9489FF1F6E
:102E98009489FF1F9C89FF1F9C89FF1FA489FF1F1E
:102EA800A489FF1FAC89FF1FAC89FF1FB489FF1FCE
:102EB800B489FF1FBC89FF1FBC89FF1FC489FF1F7E
:102EC800C489FF1FCC89FF1FCC89FF1FD489FF1F2E
:102ED800D489FF1FDC89FF1FDC89FF1FE489FF1FDE
:102EE800E489FF1FEC89FF1FEC89FF1FF489FF1F8E
:102EF800F489FF1FFC89FF1FFC89FF1F048AFF1F3D
:102F0800048AFF1F0C8AFF1F0C8AFF1F148AFF1FE9
:102F1800148AFF1F1C8AFF1F1C8AFF1F248AFF1F99
:102F2800248AFF1F2C8AFF1F2C8AFF1F348AFF1F49
:102F3800348AFF1F3C8AFF1F3C8AFF1F448AFF1FF9
:102F4800448AFF1F4C8AFF1F4C8AFF1F548AFF1FA9
:102F5800548AFF1F5C8AFF1F5C8AFF1F648AFF1F59
:102F6800648AFF1F6C8AFF1F6C8AFF1F748AFF1F09
:102F7800748AFF1F7C8AFF1F7C8AFF1F848AFF1FB9
:102F8800848AFF1F8C8AFF1F8C8AFF1F948AFF1F69
:102F9800948AFF1F9C8AFF1F9C8AFF1FA48AFF1F19
:102FA800A48AFF1FAC8AFF1FAC8AFF1FB48AFF1FC9
:102FB800B48AFF1FBC8AFF1FBC8AFF1FC48AFF1F79
:102FC800C48AFF1FCC8AFF1FCC8AFF1FD48AFF1F29
:102FD800D48AFF1FDC8AFF1FDC8AFF1FE48AFF1FD9
:102FE800E48AFF1FEC8AFF1FEC8AFF1FF48AFF1F89
:102FF800F48AFF1FFC8AFF1FFC8AFF1F048BFF1F38
:10300800048BFF1F0C8BFF1F0C8BFF1F148BFF1FE4
:10301800148BFF1F1C8BFF1F1C8BFF1F248BFF1F94
:10302800248BFF1F2C8BFF1F2C8BFF1F348BFF1F44
:10303800348BFF1F3C8BFF1F3C8BFF1F448BFF1FF4
:10304800448BFF1F4C8BFF1F4C8BFF1F548BFF1FA4
:10305800548BFF1F5C8BFF1F5C8BFF1F648BFF1F54
:10306800648BFF1F6C8BFF1F6C8BFF1F748BFF1F04
:10307800748BFF1F7C8BFF1F7C8BFF1F848BFF1FB4
:10308800848BFF1F8C8BFF1F8C8BFF1F948BFF1F64
:10309800948BFF1F9C8BFF1F9C8BFF1FA48BFF1F14
:1030A800A48BFF1FAC8BFF1FAC8BFF1FB48BFF1FC4
:1030B800B48BFF1FBC8BFF1FBC8BFF1FC48BFF1F74
:1030C800C48BFF1FCC8BFF1FCC8BFF1FFFFFFFFFA5
:1030D8000000020000000000000000001890FF1F20
:1030E8008090FF1FE890FF1F000000000000000014
:1030F80000000000000000000000000000000000C8
:1031080000000000000000000000000000000000B7
:1031180000000000000000000000000000000000A7
:103128000000000000000000000000000000000097
:103138000000000000000000000000000000000087
:103148000000000000000000000000000000000077
:103158000000000000000000000000000000000067
:103168000000000000000000000000000000000057
:1031780001000000000000000E33CDAB34126DE6F4
:10318800ECDE05000B00000000000000000000005D
:103198000000000000000000000000000000000027
:1031A8000000000000000000000000000000000017
:1031B8000000000000000000000000000000000007
:1031C80000000000000000000000000000000000F7
:1031D80000000000000000000000000000000000E7
:1031E80000000000000000000000000000000000D7
:1031F8000000000000000000E88BFF1F5091FF1F37
:00000001FF
